:020000020000FC
:060000000DC0A5C0BDC04B
:02000A00C6C16D
:10001A00C5C10FED0DBFEFEFF7E0049101BF479A9D
:10002A0003E601BB0BE002BB0FEF07BB01E008BB15
:10003A0003E00ABB00E00BBB90980FE597E1A9E744
:10004A00AA95F1F79A95D9F70A95C1F7909A772761
:10005A0088278824FF24F0928E00F0928B00F09279
:10006A009800F0929900F0928100F0928200F0924A
:10007A008300F0928500F092B200F09271003FEF97
:10008A004FEF00E406BF02E000BF01E809BF61E0EC
:10009A00E199FECFBAE0BEBBE09A0DB3B395B5378E
:1000AA0059F00F3FC1F307FB70F90F7700938000F7
:1000BA00BA95B093840006C0BAE0B093840002E314
:1000CA000093800003E00EBBE09A0DB3009390000A
:1000DA0004E00EBBE09A0DB30093910005E00EBB5D
:1000EA00E09A0DB30093920009E005BF00EC0BBF44
:1000FA0070FF05C000918000043608F07860E3E7DD
:10010A00F7E01FEF2FEF91E0A0EA849118278827E4
:10011A00282758E02695179510F42A2719275A9563
:10012A00C9F73197E030FF0581F7E4E7F7E09491EA
:10013A003196A4919117A20709F0B7C29927AA2765
:10014A007894ABC10F934FB67B7F70FF11C090308C
:10015A0041F400918000F01621F010F0FA9401C0E9
:10016A00F3940FEF0DBD0DE70F0D0CBD03E00EBDAF
:10017A004FBE0F9118950F934FB660FD08C061FDF1
:10018A0010C062FD1CC063FD24C01127FDC001E040
:10019A0003BF6E7F62641127222705B7046005BF7B
:1001AA00F3C06D7F6460012F1127202E2694322C14
:1001BA00200E000F300E05B70B7F05BFE5C06B7F21
:1001CA0068605CE04427332711270BB70F770BBF12
:1001DA00DBC06F7E5A95C1F7042F001F331F001F23
:1001EA00331F4F733F71607E112771FD64C0009108
:1001FA009000301789F070FFDECF0F2D0130D8F64E
:10020A00009197000130B8F603950093970002EB2E
:10021A0000938E009098CFCF00919100401751F42F
:10022A00009198000930A4F40395009398000130D6
:10023A0099F1C1CF009192004017E9F60091990017
:10024A000930C4F4039500939900013029F1B3CF22
:10025A0070FFB1CF0091800001300CF4ACCF0430B4
:10026A0020F0035000938000A6CF0027009380005F
:10027A0008EA13C070FF15C000918000043608F028
:10028A009ACF013624F40D5F0093800094CF04E6E0
:10029A000093800008EA01C00AE800938E00909853
:1002AA008ACF716000270093800002E00EBB01E054
:1002BA000DBB706180CF00270093820000938300FA
:1002CA000091B200013044F403950093B2003093D8
:1002DA00B0004093B1006FCF033094F40091B000A6
:1002EA00301721F000270093B20065CF0091B100CA
:1002FA004017C1F70091B20003950093B2005BCF9B
:10030A00043074F465FD0DC003950093B200309378
:10031A00B3004093B40060620EE900938E00909897
:10032A004ACF0091B300301721F40091B40040176E
:10033A0029F4909803E800938E003DCFE199FECF0F
:10034A0003E00EBB3DBBE29AE19A30939000E1993B
:10035A00FECF04E00EBB4DBBE29AE19A40939100B6
:10036A00E199FECF05E00EBB4091B4004DBBE29A85
:10037A00E19A40939200E199FECF6F7D7D7F02EB77
:10038A0000938E00909817CF4FBE0F911895C09882
:10039A000F9300E00EBDC09A0F9118950F934FB6B8
:1003AA0028309CF560FD73C061FD20C062FD21C04C
:1003BA0063FF6AC064FD17C012150CF468C0839904
:1003CA0007C08894441F331F05B7046005BF06C0E1
:1003DA000894441F331F05B70B7F05BF0BB700688E
:1003EA000BBF606154C013153CF451C0113124F4A1
:1003FA004EC012150CF44BC0607E112755274FEFE3
:10040A003FEF05B70B7F05BF45C0617A002703BFE1
:10041A00009397004FEF3FEF05B70B7F05BF71FDC4
:10042A002FC000919800003091F0093040F0002769
:10043A000093980070FF2EC0777F70612BC0FF2455
:10044A00F092980070FF26C0767F706123C00091F9
:10045A00990001300CF41EC0093028F000270093DF
:10046A009900786117C000270093990070FD12C0A7
:10047A00716000918000043608F0786070610AC0EB
:10048A0000270093B20006C0173308F06160139585
:10049A0009F423954FBE0F911895746072FDFECF33
:1004AA0071FF03C066FF9AC0B5C09395943008F4F3
:1004BA0075C0992784994BC089314CF48395833050
:1004CA0009F0BBC090980AE800938E0067C070FFDD
:1004DA0034C00091800073FD09C0043608F0ADC035
:1004EA000395043619F100938000A7C0003031F05B
:1004FA000A950030D9F0009380009FC000918100D6
:10050A000D3721F003950093810097C000270093CF
:10051A0081007260767FFF24909804EE00938E002B
:10052A00882702E00EBB8DBB706187C000938000F4
:10053A00909808EA00938E0080C0716000270093AB
:10054A00800002E00EBB01E00DBB706176C0833013
:10055A0014F4882723C0893178F001E00EBB00919A
:10056A0080000DBB7061882773FF04C0777F80937A
:10057A00810014C0786012C0882770FD07C07160BE
:10058A0000918000043620F0786002C0767FFF2454
:10059A0002E00EBB072F01700DBB706170FD02C037
:1005AA0091984BC000918000003089F0043679F0B0
:1005BA0000918B00003021F00A9500938B003DC01A
:1005CA00919907C008E273FD0AE500938B00919A9E
:1005DA0034C091980AE000938B002FC000918200EA
:1005EA000395003019F00093820014C00093820032
:1005FA00009183000395083119F0009383000AC023
:10060A000027009383007D7F6F7D909804EE00930E
:10061A008E0013C000918B00003021F00A950093E0
:10062A008B000BC0919905C0919A0FE000938B0043
:10063A0004C091980AE000938B0000918E0007FF96
:10064A000AC007FB0F77003011F4909A02C00A958E
:10065A0007F900938E0074FF0CC0E1991FC0009146
:10066A0084000EBB0FEF0DBBE29AE19A7F7E7062A7
:10067A0015C075FF13C0E19911C00091840003955C
:10068A00053708F00AE0009384000EBB0091800051
:10069A0070FB07F90DBBE29AE19A7F7DA39521F4DD
:1006AA008394082D053708F4F8CEF894919AC09AE5
:1006BA00FFCF903009F0F1CE00E02CD0C09180003D
:1006CA0041D0092F13D00D2F11D00C2F70FD0068C7
:1006DA000DD0E3CE0FE01ED00FE019D000E01AD003
:1006EA00CAE000270ED0CA95E1F7089507FB0F77F5
:1006FA00E4E6F7E0E00F08F4F395049104F901D079
:10070A0008950F9304D00F91029501D008950F70A8
:10071A00006101C00F70000F000F000FB5E0C6980E
:10072A00001F10F0C79801C0C79ABA95C69AB9F7C0
:10073A00C598C79AC59A0895DFEFD395CA50E8F7C6
:10074A00C65F08959FEFDFEF9395C456E8F7CC593B
:10075A00D395CA50E8F7C65F0895EE602F6DE1CDD4
:0C076A00CF68EFEDEBC78E678F8B409AD5
:00000001FF
