:020000020000FC
:060000000DC075C018954B
:02000A008AC0AA
:10001A0018950FED0DBFEFEFF7E0049101BF479A76
:10002A0003E601BB0BE002BB0FEF07BB01E008BB15
:10003A0003E00ABB00E00BBBA89508E101BD08E29A
:10004A0001BD90980FE597E1A9E7AA95F1F79A956E
:10005A00D9F70A95C1F7909A77279927AA27882767
:10006A008824FF24F0928E00F0928B00F092980080
:10007A00F0929900F0928100F0928200F09283004F
:10008A00F0928500F092B200F09271003FEF4FEFCC
:10009A0000E809BFE199FECFBAE0BEBBE09A0DB312
:1000AA00B395B53759F00F3FC1F307FB70F90F77D6
:1000BA0000938000BA95B093840007C0BAE0B09369
:1000CA00840002E300938000919801E005BF00E4F8
:1000DA000BBF70FF05C000918000043608F07860FD
:1000EA00789420C00F934FB67B7F70FF11C0903079
:1000FA0041F400918000F01621F010F0FA9401C04A
:10010A00F3940FEF0DBD0DE70F0D0CBD03E00EBD0F
:10011A004FBE0F911895C0980F9300E00EBDC09A7C
:10012A000F911895A895746072FDFECF939594303F
:10013A0008F45FC09927849934C089314CF48395B7
:10014A00833009F075C090980AE800938E0051C078
:10015A0070FF1DC00091800073FD09C0043608F0CD
:10016A0067C00395043661F00093800061C00130D6
:10017A0008F45EC00A95003019F00093800058C058
:10018A0000938000909808EA00938E0051C0716035
:10019A0000270093800002E00EBB01E00DBB7061F6
:1001AA0047C0833014F4882724C0882480928500AD
:1001BA00893168F001E00EBB009180000DBB7061CF
:1001CA00882773FF02C0777F14C0786012C088271F
:1001DA0070FD07C0716000918000043620F07860DD
:1001EA0002C0767FFF2402E00EBB072F01700DBB11
:1001FA00706170FD02C091981BC0009180000030B0
:10020A0089F0043679F000918B00003021F00A95CC
:10021A0000938B000DC0919907C008E273FD0AE5AF
:10022A0000938B00919A04C091980AE000938B0086
:10023A0000918E0007FF0AC007FB0F77003011F408
:10024A00909A02C00A9507F900938E0074FF0CC0B9
:10025A00E1991FC0009184000EBB0FEF0DBBE29A1B
:10026A00E19A7F7E706215C075FF13C0E19911C0D3
:10027A00009184000395053708F00AE00093840092
:10028A000EBB0091800070FB07F90DBBE29AE19A60
:10029A007F7D70FF14C0A39591F4839481F400913B
:1002AA008500039500938500023448F07E7F02E0C2
:1002BA000EBB00270DBB009385007061FF2432CF6F
:00000001FF
