S01A00006D696E695F73797374656D5F7761746865722E737265636F
S11300000C94FD000C941A010C941A010C941A011E
S11300100C941A010C941A010C941A010C941A01F0
S11300200C941A010C941A010C941A010C943216B3
S11300300C941A010C941A010C941A010C941A01D0
S11300400C941A010C941A010C941A010C941A01C0
S11300500C941A014B0A690A870AA50AC40AE40A1D
S1130060C809C809C809C809C809C809C809C80904
S1130070C809C809C809C809C809C809C809C809F4
S1130080C809C809C809C809C809C809C809C809E4
S1130090C809C8093C0A5A0A780A960AB40AD40A52
S11300A0D41302147F1587158F1597159F151214F5
S11300B045148614DF1437156E616E00696E660090
S11300C000407A10F35A00A0724E18090010A5D40B
S11300D0E80000E87648170000E40B54020000CA68
S11300E09A3B000000E1F5050000809698000000AE
S11300F040420F000000A08601000000102700000D
S11301000000E803000000006400000000000A0092
S1130110000000000100000000002C76D888DC6795
S11301204F0823DFC1DFAE59E1B1B796E5E3E453ED
S1130130C63AE651997696E8E6C28426EB898C9B0A
S113014062ED407C6FFCEFBC9C9F40F2BAA56FA5AA
S1130150F490055A2AF75C936B6CF9676DC11BFC2C
S1130160E0E40D47FEF520E6B500D0ED902E030047
S1130170943577050080841E080000204E0A000094
S113018000C80C333333330F986E12831141EF8D53
S11301902114893BE65516CFFEE6DB18D1844B3893
S11301A01BF77C1D901DA4BBE424203284725E22C4
S11301B08100C9F124ECA1E53D2741A042A1E0451D
S11301C0A3A4A5A64BA74D484FA8504354A9AA5889
S11301D0E1ABACE2ADAEADAFB0B161B2B3B4E36527
S11301E0B6B7B8B9BABBBCBD6FBE7063BF79E478AB
S11301F0E5C0C1E6C2C3C4C5C6C711241FBECFE54E
S1130200D4E0DEBFCDBF14E0A0E6B0E0EEE1FAE357
S113021002C005900D92A832B107D9F724E0A8E2F4
S1130220B4E001C01D92AA34B207E1F70E9442046F
S11302300C940D1D0C9400003E9A86B1876886B913
S1130240369A089597B1907F892B87B98AE18A9568
S1130250F1F700C0369A349BFECF84B195B108956E
S11302600E942201BC01660F771F660F771F860F5D
S1130270971FBC0180E090E00E94B9162AE037ED98
S113028043E251E40E94471608950E942201BC01F2
S1130290660F771F660F771F860F971FBC01672FA6
S11302A0772766956695072E000C880B990B0E949C
S11302B0BB160895982F92959F70990F292F220F9E
S11302C0220F920F8F70890F08959DEC899F912DB5
S11302D0112496959695969520E1929FA00111245C
S11302E0990F292F220F220F920F891B842B089517
S11302F087B3806F87BB88B38F7088BB0895C29A19
S113030082E08A95F1F700C0C2980895CF9387B32D
S11303108F7087BB88B3806F88BBC19AC29A000074
S11303200000C6B3C298000000000E947F010000D4
S11303300000CC239CF3C198CF910895CF93DF9311
S1130340D82F0E9478019D2F92959F70CD2FCF704A
S113035090FDC49A969590FDC59A969590FDC69A7F
S1130360969509F0C79A0E947F010E947801D0FDFA
S1130370C49A8C2F869580FDC59A869580FDC69A71
S1130380869509F0C79A0E947F0187B38F7087BB57
S113039088B38F7088BBDF91CF910895CF93C82F16
S11303A00E9486018C2F0E949E01CF910895CF93C5
S11303B0C82F0E948601C09AC03C30F0E0E4EC0FE4
S11303C0F0E0E654FE4FC4918C2F0E949E01C09829
S11303D0CF910895623031F0633031F0613029F407
S11303E0805C03C08C5E01C08C5A80680E94CE0180
S11303F00895CF93C82F862F642F0E94EA018C2F73
S11304000E94D701CF910895CF93DF93EC01862FFB
S1130410642F0E94EA018881882331F021960E948A
S1130420D70189918111FBCFDF91CF910895CF93AB
S1130430DF93EC018881882331F021960E94D70153
S113044089918111FBCFDF91CF910895CF932FEF45
S113045080E792E0215080409040E1F700C0000026
S113046087B3876087BB88B3887F88BB0E94780185
S1130470C3E088B3806388BB0E947F018FE097E26A
S11304800197F1F700C00000C15099F70E9486015E
S11304900E947801C59A0E947F0188E20E94CE01E1
S11304A08CE00E94CE0186E00E94CE0182E00E9490
S11304B0CE0181E00E94CE01CF91089581E00E9497
S11304C0CE0108950F931F93CF93DF93CDB7DEB77B
S11304D0C055D1090FB6F894DEBF0FBECDBF9F93B0
S11304E08F938CE391E09F938F938E010F5F1F4F47
S11304F01F930F930E94771CC8010E9417020F904C
S11305000F900F900F900F900F90C05BDF4F0FB6BE
S1130510F894DEBF0FBECDBFDF91CF911F910F9135
S1130520089580E280B9089584EA86BF06B607FE7E
S1130530FDCF089584E986BF089583B984E886BF12
S113054006B607FEFDCF0895CF93DF93C82FD62FAD
S11305500E9494028D2F0E949D028C2F0E949D0266
S113056084E986BFDF91CF91089584EC86BF06B6F7
S113057007FEFDCF83B1089584E886BF06B607FE63
S1130580FDCF83B1089523B330E002C0359527959C
S11305908A95E2F720FD0CC02FE78AE196E021500E
S11305A080409040E1F700C0000081E090E00895B1
S11305B080E090E008958B9A939881B3806381BB27
S11305C082B38F7C82BB81B3806C81BB82B3806C2D
S11305D082BB8FEF87BB18BA84B3837884BB85B39F
S11305E08C6785BBA79AAF9A08950F931F93CF93F7
S11305F0DF9386E090E00E94C302019719F40E9401
S11306009A023BC160ED80E00E94A4022FEF82E5D4
S113061097E0215080409040E1F700C000000E9424
S1130620940281ED0E949D020E94B50290E0909395
S11306303504809334040E94B50290E0909333040F
S1130640809332040E94B50290E090933104809329
S113065030040E94B50290E090932F0480932E04FE
S11306600E94B50290E090932D0480932C040E9484
S1130670B50290E090932B0480932A040E94BC025C
S113068090E090932904809328040E949A02809118
S113069034040E945A0190E090933504809334040A
S11306A0809132040E945A0190E090933304809325
S11306B03204809130040E945A0190E090933104F6
S11306C0809330040EE214E0F80180810E945A0104
S11306D090E090932F0480932E0480912C040E9428
S11306E05A0190E090932D0480932C0480912A0465
S11306F00E945A0190E090932B0480932A048091E5
S113070028040E945A0190E09093290480932804BD
S11307108DE00E941F168AE00E941F1680912C040F
S113072090912D04CAE0D0E0BE010E94EC1A80E34F
S1130730860F0E941F1680912C0490912D04BE01F7
S11307400E94EC1A805D0E941F168EE20E941F1602
S113075080912A0490912B04BE010E94EC1A80E33C
S1130760860F0E941F1680912A0490912B04BE01CB
S11307700E94EC1A805D0E941F168EE20E941F16D2
S11307808091280490912904BE010E94EC1A80E310
S1130790860F0E941F168091280490912904BE019F
S11307A00E94EC1A805D0E941F168EE20E941F16A2
S11307B08EE20E941F168EE20E941F168EE20E9495
S11307C01F168EE20E941F16F8018081805D0E9430
S11307D01F168EE20E941F168EE20E941F168EE2E2
S11307E00E941F168091300490913104BE010E9432
S11307F0EC1A80E3860F0E941F16809130049091BA
S11308003104BE010E94EC1A805D0E941F168AE327
S11308100E941F168091320490913304BE010E94FD
S1130820EC1A80E3860F0E941F1680913204909187
S11308303304BE010E94EC1A805D0E941F168AE3F5
S11308400E941F168091340490913504BE010E94C9
S1130850EC1A80E3860F0E941F1680913404909155
S11308603504BE010E94EC1A805D0E941F168DE0C3
S11308700E941F168AE00E941F16DF91CF911F91DC
S11308800F9108950E94DB020E94910287E690E096
S11308900E9413160E941C010E9426020E94DF156A
S11308A07894369A0E94F3150E94FB1560E080E06C
S11308B00E94EA012FEF84E39CE0215080409040A5
S11308C0E1F700C000000E945E020E94AA15FDCF5D
S11308D0EF92FF920F931F93CF93DF9313E001E006
S11308E0D2E0E12EC02FFD2E86E090E00E94C302EC
S11308F0019709F45DC280913801833028F0F092A9
S11309003901C093380106C0811104C0E092390155
S1130910C093380180913701833028F0E092390187
S1130920C093370106C0811104C0C0933901C0933C
S1130930370180913601833028F0C0933901C09388
S1130940360106C0811104C0F0923901C09336010A
S113095080913901823009F4BBC0833009F46EC13F
S1130960813011F682E090E00E94C302019729F4DD
S11309708091380181508093380183E090E00E9497
S1130980C302019729F4809138018F5F8093380165
S113099080913801813021F0823009F44DC0A4CF18
S11309A040E06AE080E491E00E940402412F6AE0A2
S11309B085EA93E00E9404024D2F612F8AE092E0C1
S11309C00E940402402F612F82E491E00E940402FD
S11309D0402F65E085E491E00E9404024D2F65E01C
S11309E08DE491E00E9404024D2F60E085E591E0E2
S11309F00E9404024D2F63E183E491E00E9404020B
S1130A0084E090E00E94C302892B41F0402F6DE006
S1130A108DEE92E00E940402DD9A66CF402F6DE0D5
S1130A2084EF92E00E9404024D2F6DE084EF92E087
S1130A300E940402DD9858CF40E06AE080E491E02F
S1130A400E940402412F6AE085EA93E00E940402B6
S1130A50402F612F8AE092E00E9404024D2F612F03
S1130A6082E491E00E940402402F65E085E491E075
S1130A700E9404024D2F65E08DE491E00E9404027F
S1130A804D2F60E085E591E00E9404024D2F63E163
S1130A9083E491E00E94040284E090E00E94C30297
S1130AA0892B41F04D2F6DE08DEE92E00E940402FF
S1130AB0DE9A1ACF402F6DE084EF92E00E94040288
S1130AC04D2F6DE084EF92E00E940402DE980CCF7B
S1130AD082E090E00E94C302019729F480913701DB
S1130AE081508093370183E090E00E94C302019714
S1130AF029F4809137018F5F80933701809137010A
S1130B00813021F0823009F44DC0EECE40E06AE03D
S1130B1080E491E00E940402412F6AE085EA93E0B8
S1130B200E9404024D2F612F8AE092E00E94040289
S1130B30402F612F82E491E00E940402402F65E07F
S1130B4087E591E00E9404024D2F65E08FE591E076
S1130B500E9404024D2F60E085E591E00E940402AA
S1130B604D2F63E183E491E00E94040284E090E06D
S1130B700E94C302892B41F0402F6DE08DEE92E07C
S1130B800E940402DF9AB0CE402F6DE084EF92E021
S1130B900E9404024D2F6DE084EF92E00E94040253
S1130BA0DF98A2CE40E06AE080E491E00E94040273
S1130BB0412F6AE085EA93E00E940402402F612FEE
S1130BC08AE092E00E9404024D2F612F82E491E0BA
S1130BD00E940402402F65E087E591E00E94040230
S1130BE04D2F65E08FE591E00E9404024D2F60E0F7
S1130BF085E591E00E9404024D2F63E183E491E0D6
S1130C000E94040284E090E00E94C302892B41F018
S1130C104D2F6DE08DEE92E00E940402929A64CE14
S1130C20402F6DE084EF92E00E9404024D2F6DE0AE
S1130C3084EF92E00E940402929856CE82E090E003
S1130C400E94C302019729F4809136018150809358
S1130C50360183E090E00E94C302019729F4809159
S1130C6036018F5F8093360180913601813021F007
S1130C70823009F44FC038CE40E06AE080E491E06D
S1130C800E940402412F6AE085EA93E00E94040274
S1130C904D2F612F8AE092E00E940402402F612FC1
S1130CA082E491E00E940402402F65E087E691E02F
S1130CB00E9404024D2F65E08EE691E00E9404023A
S1130CC04D2F60E085E591E00E9404024D2F63E121
S1130CD083E491E00E94040284E090E00E94C30255
S1130CE0892B49F0402F6DE081E393E00E940402D8
S1130CF00E940316F9CD402F6DE084EF92E00E942C
S1130D0004024D2F6DE084EF92E00E9404020E94E1
S1130D10F315EACD40E06AE080E491E00E94040229
S1130D20412F6AE085EA93E00E940402402F612F7C
S1130D308AE092E00E9404024D2F612F82E491E048
S1130D400E940402402F65E087E691E00E940402BD
S1130D504D2F65E08EE691E00E9404024D2F60E085
S1130D6085E591E00E9404024D2F63E183E491E064
S1130D700E94040284E090E00E94C302892B49F09F
S1130D804D2F6DE081E393E00E9404020E94FB1565
S1130D90ABCD402F6DE084EF92E00E9404024D2F12
S1130DA06DE084EF92E00E9404020E940B169CCD39
S1130DB0DF91CF911F910F91FF90EF9008956130D3
S1130DC079F4813029F480934204DD9ADE9A0895FF
S1130DD08230A9F481E080933E04DF9A929A0895C8
S1130DE061110DC0813029F410924204DD98DE981F
S1130DF00895823021F410923E04DF989298089569
S1130E0060ED80E00E94A4022FEF82E597E021507C
S1130E1080409040E1F700C000000E94940281ED00
S1130E200E949D020E94B50290E090933504809345
S1130E3034040E94B50290E090933304809332040A
S1130E400E94B50290E090933104809330040E9494
S1130E50B50290E090932F0480932E040E94B50273
S1130E6090E090932D0480932C040E94B50290E0AE
S1130E7090932B0480932A040E94BC0290E09093E8
S1130E802904809328040E949A02809134040E94C9
S1130E905A0190E090933504809334048091320495
S1130EA00E945A0190E0909333048093320480911D
S1130EB030040E945A0190E09093310480933004EE
S1130EC080912E040E945A0190E090932F04809305
S1130ED02E0480912C040E945A0190E090932D04DA
S1130EE080932C0480912A040E945A0190E09093EC
S1130EF02B0480932A04809128040E945A0190E0D4
S1130F0090932904809328048091300490913104B3
S1130F100F97D9F480913204909133040B9759F4CC
S1130F2061E081E00E94DF0642E060E085E791E055
S1130F300E9404020AC042E060E080E891E00E945E
S1130F40040260E081E00E94DF0680913004909109
S1130F5031044197E1F48091320490913304459730
S1130F60029758F442E060E08BE891E00E940402AA
S1130F7061E082E00E94DF06089542E060E086E9D5
S1130F8091E00E94040260E082E00E94DF0608957E
S1130F9060ED80E00E94A4022FEF82E597E02150EB
S1130FA080409040E1F700C000000E94940281ED6F
S1130FB00E949D020E94B50290E0909335048093B4
S1130FC034040E94B50290E0909333048093320479
S1130FD00E94B50290E090933104809330040E9403
S1130FE0B50290E090932F0480932E040E94B502E2
S1130FF090E090932D0480932C040E94B50290E01D
S113100090932B0480932A040E94BC0290E0909356
S11310102904809328040E949A02809134040E9437
S11310205A0190E090933504809334048091320403
S11310300E945A0190E0909333048093320480918B
S113104030040E945A0190E090933104809330045C
S113105080912E040E945A0190E090932F04809373
S11310602E0480912C040E945A0190E090932D0448
S113107080932C0480912A040E945A0190E090935A
S11310802B0480932A04809128040E945A0190E042
S11310909093290480932804809130049091310422
S11310A08930910569F580913204909133040B974E
S11310B0029740F442E060E081EA91E00E94040279
S11310C0DD9A07C042E060E08CEA91E00E940402ED
S11310D0DD9880913204909133044F97029740F445
S11310E042E060E088EB91E00E940402DE9A0895F9
S11310F042E060E083EC91E00E940402DE980895EF
S11311000F9759F580913204909133044F970297C9
S113111040F442E060E087EB91E00E940402DD9A33
S113112007C042E060E082EC91E00E940402DE9895
S113113080913204909133040B9741F442E060E0D3
S113114082EA91E00E940402DD9A089542E060E0A0
S11311508DEA91E00E940402DD98089560ED80E03C
S11311600E94A4022FEF82E597E021508040904036
S1131170E1F700C000000E94940281ED0E949D02EC
S11311800E94B50290E090933504809334040E9449
S1131190B50290E090933304809332040E94B50228
S11311A090E090933104809330040E94B50290E063
S11311B090932F0480932E040E94B50290E09093A4
S11311C02D0480932C040E94B50290E090932B048C
S11311D080932A040E94BC0290E090932904809397
S11311E028040E949A02809134040E945A0190E0DB
S11311F09093350480933404809132040E945A0100
S113120090E09093330480933204809130040E94E0
S11312105A0190E0909331048093300480912E041D
S11312200E945A0190E090932F0480932E048091A1
S11312302C040E945A0190E090932D0480932C0476
S113124080912A040E945A0190E090932B04809389
S11312502A04809128040E945A0190E09093290462
S11312608093280480913004909131048930910551
S113127069F580913204909133040B97029740F4FE
S113128042E060E08DEC91E00E940402DF9A07C026
S113129042E060E088ED91E00E940402DF988091D2
S11312A03204909133044F97029740F442E060E097
S11312B084EE91E00E940402929A089542E060E074
S11312C08FEE91E00E940402929808950F9759F5C9
S11312D080913204909133044F97029740F442E096
S11312E060E083EE91E00E940402929A07C042E01B
S11312F060E08EEE91E00E940402929880913204A4
S1131300909133040B9741F442E060E08EEC91E05D
S11313100E940402DF9A089542E060E089ED91E0C2
S11313200E940402DF9808953F924F925F926F9259
S11313307F928F929F92AF92BF92CF92DF92EF9261
S1131340FF920F931F93CF93DF93CDB7DEB7C456AD
S1131350D1090FB6F894DEBF0FBECDBF4424439429
S1131360312C772473946894552451F803EE12E0D9
S11313707E0123E3E20EF11CCE0101966C010F2ED7
S1131380F3E06F2EF02D8E2C9F2CA82EBD2C1BC0AD
S1131390372C19C0372C17C0372C15C0372C13C065
S11313A0372C11C0372C0FC0372C0DC0372C0BC075
S11313B0372C09C0372C07C0372C05C0372C03C085
S11313C0372C01C0352C86E090E00E94C3020197BF
S11313D009F4C5C10E943C16813349F018F48033E6
S11313E0F9F031C0823361F0833399F02CC00E944C
S11313F05E0240E060E089EF91E00E9404022EC0AA
S11314000E945E0240E060E08DE092E00E940402EF
S1131410EBC040E060E08EE192E00E9404020BC168
S11314200E945E0240E060E08FE292E00E940402CB
S11314309FEF24E38CE0915020408040E1F700C00E
S113144000000E945E0292E0391609F4CDC023E048
S1131450321609F4F0C081E03812B5CF0E943C1670
S113146090E0FC01E154F109E632F10508F090CF77
S1131470E65DFF4F0C94001B442D60E08EE392E088
S11314800E940402DD98439493E0941508F082CFFF
S1131490472C372C98CF442D60E089E492E00E94D9
S11314A00402DD9A439423E0241508F075CF472CF9
S11314B0372C89CF442D60E084E592E00E94040239
S11314C0DE98439483E0841508F068CF472C372CCA
S11314D07ACF442D60E08FE592E00E940402DE9A08
S11314E0439493E0941508F05BCF472C372C6BCFD3
S11314F0442D60E08AE692E00E940402DF9843945F
S113150023E0241508F04ECF472C372C5CCF442D14
S113151060E085E792E00E940402DF9A439483E04E
S1131520841508F041CF472C372C4DCF442D60E073
S113153080E892E00E9404029298439493E0941508
S113154008F034CF472C372C3ECF442D60E08BE895
S113155092E00E940402929A439423E0241508F036
S113156027CF472C372C2FCF442D60E086E992E01B
S11315700E9404020E94F315439483E0841508F04A
S113158019CF472C372C1FCF442D60E081EA92E01D
S11315900E9404020E940316439493E0941508F0F9
S11315A00BCF472C372C0FCF442D60E08CEA92E010
S11315B00E9404020E94FB15439423E0241508F0C2
S11315C0FDCE472C372CFFCE442D60E087EB92E014
S11315D00E9404020E940B16439483E0841508F0D1
S11315E0EFCE472C372CEFCE0E943C168E3479F088
S11315F08335B9F08D3409F0E5CE472D60E082ECF7
S113160092E00E9404020E940007352CDCCE472D94
S113161060E08DEC92E00E9404020E94C807352C21
S1131620D2CE0E94AE08472D60E088ED92E00E9481
S11316300402352CC8CE86E090E00E94C302892BB8
S113164009F08BC00E943C16803509F486C080E006
S11316500E9430019F938F937F936F931F930F93F7
S1131660FF92EF920E94771C882D992D0E942316D9
S11316709FEF21EE84E0915020408040E1F700C0CC
S113168000008AE00E941F168DE00E941F16872D1D
S11316900E9430019F938F937F936F931F930F93B7
S11316A0FF92EF920E94771C882D992D0E94231699
S11316B08AE00E941F168DE00E941F169FEF21EE04
S11316C084E0915020408040E1F700C00000852D67
S11316D00E9445019F938F937F936F931F930F9362
S11316E0DF92CF920E94771C8A2D9B2D0E94231695
S11316F09FEF21EE84E0915020408040E1F700C04C
S113170000008AE00E941F168DE00E941F16862D9D
S11317100E9445019F938F937F936F931F930F9321
S1131720DF92CF920E94771C0FB6F894DEBF0FBEF3
S1131730CDBF8A2D9B2D0E9423168AE00E941F167E
S11317408DE00E941F169FEF21EE84E0915020400F
S11317508040E1F700C000006ECF362C34CECC5967
S1131760DF4F0FB6F894DEBF0FBECDBFDF91CF9130
S11317701F910F91FF90EF90DF90CF90BF90AF90AB
S11317809F908F907F906F905F904F903F900895BF
S113179020913004309131042331310559F52091E1
S11317A03204309133042A30310549F581309105F2
S11317B041F482E080933B0161E081E00E94DF0616
S11317C008958230910539F482E080933A0161E012
S11317D00E94DF060895039791F482E080933B0111
S11317E080933A0161E00E94DF0661E081E00E949B
S11317F0DF06089581E080933B0180933A010895C8
S1131800CF93C42F20E030E048E452E40E946B17E9
S11318101816A4F40E940316C23039F443E060E0C1
S11318208AEE92E00E94040211C0C13079F443E0D0
S113183060E081EF92E00E94040208C00E94F31568
S113184043E060E081EF92E00E940402CF910895AA
S113185020E030E048E452E40E946B1718161CF4B0
S11318600E94031608950E94F315089520E030E0C5
S113187048E452E40E946B1718161CF40E940B16DD
S113188008950E94FB150895CF93C42F20E030E003
S113189048E452E40E946B171816A4F40E940B1635
S11318A0C23039F443E060E088EF92E00E94040221
S11318B011C0C13079F443E060E08FEF92E00E9400
S11318C0040208C00E94FB1543E060E08FEF92E041
S11318D00E940402CF9108958130A1F480914204C2
S11318E0813039F443E06AE086E093E00E94040228
S11318F0089581111CC043E06AE08DE093E00E94EA
S113190004020895823099F480913E04813039F4C0
S113191043E06AE084E193E00E94040208958111A7
S113192006C043E06AE08BE193E00E94040208955C
S113193080914204813039F443E060E086E093E032
S11319400E94040208C0811106C043E060E08DE0FB
S113195093E00E94040280913E04813039F443E014
S11319606BE084E193E00E9404020895811106C0B3
S113197043E06BE083E293E00E9404020895AF9297
S1131980BF92CF92DF92EF92FF920F931F93CF9368
S1131990DF93CDB7DEB7C059D1400FB6F894DEBFA0
S11319A00FBECDBF813009F0A8C00F2EF4E3EF2E97
S11319B0F3E0FF2EF02D8E010F5F1F4F86E090E0C5
S11319C00E94C302019729F40E949A020E945E02B7
S11319D066C286E090E00E94C302019729F40E9447
S11319E09A020E945E025BC20E94F50281E090E0CE
S11319F00E94C80B40E065E08AE293E00E94040282
S1131A0080E00E9430019F938F937F936F93FF92A6
S1131A10EF921F930F930E94771C41E065E0C80189
S1131A200E94040281E00E946C0CD0903B0480E090
S1131A300E9430014D2D0E94000C82E00E9445015D
S1131A400FB6F894DEBF0FBECDBF20E030E040E01B
S1131A5050E40E94421688237CF480913B0181303B
S1131A6059F442E065E08DE393E00E94040261E0F2
S1131A7081E00E94DF06A2CF82E00E94450120E0BF
S1131A8030E040E050E40E946B171816D4F482E072
S1131A900E94450120E030E040E450E40E944216F8
S1131AA018167CF080913B01813059F442E065E0E6
S1131AB08AE493E00E94040260E081E00E94DF0671
S1131AC07DCF82E00E94450120E030E040E450E414
S1131AD00E946B1718160CF071CF80913B01813076
S1131AE009F06CCF42E065E087E593E00E940402D0
S1131AF060E081E00E94DF0661CF823009F09DC082
S1131B000F2EFEE6EF2EF3E0FF2EF02D8E01075888
S1131B101F4F86E090E00E94C302019729F40E94BF
S1131B209A020E945E02BBC10E94F50282E090E02C
S1131B300E94C80B40E065E084E693E00E94040242
S1131B4081E00E9430019F938F937F936F93FF9264
S1131B50EF921F930F930E94771C41E065E0C80148
S1131B600E94040282E00E946C0CD0903A0481E04E
S1131B700E9430014D2D0E94440C83E00E944501D7
S1131B800FB6F894DEBF0FBECDBF20E030E040E0DA
S1131B9050E40E94421688237CF480913A018130FB
S1131BA059F442E065E08DE393E00E94040261E0B1
S1131BB082E00E94DF06ADCF83E00E94450120E071
S1131BC030E040E050E40E946B171816D4F483E030
S1131BD00E94450120E030E040E450E40E944216B7
S1131BE018167CF080913A01813059F442E065E0A6
S1131BF087E793E00E94040260E082E00E94DF062F
S1131C0088CF83E00E94450120E030E040E450E4C6
S1131C100E946B1718160CF07CCF80913A0181302A
S1131C2009F077CF42E065E087E593E00E94040283
S1131C3060E082E00E94DF066CCF833009F02FC1A0
S1131C400F2EF4E3AF2EF3E0BF2EF02D7E013FEB19
S1131C50E31A3EEFF30A0F2EFEE6CF2EF3E0DF2E5B
S1131C60F02D8E010F501F4F86E090E00E94C302BA
S1131C70019729F40E949A020E945E0210C10E94F8
S1131C80F50283E090E00E94C80B40E060E08AE245
S1131C9093E00E94040240E06AE084E893E00E943A
S1131CA0040240E06BE084E693E00E94040280E0DA
S1131CB00E9430019F938F937F936F93BF92AF9253
S1131CC0FF92EF920E94771C41E060E0C7010E94FE
S1131CD0040241E06AE084E893E00E94040281E0A7
S1131CE00E9430019F938F937F936F93DF92CF92E3
S1131CF01F930F930E94771C41E06BE0C8010E9480
S1131D00040282E00E9445010FB6F894DEBF0FBEC4
S1131D10CDBF20E030E040E050E40E94421688232A
S1131D207CF480913B01813059F442E060E086E824
S1131D3093E00E94040261E081E00E94DF063EC05D
S1131D4082E00E94450120E030E040E050E40E943F
S1131D506B171816D4F482E00E94450120E030E0AD
S1131D6040E450E40E94421618167CF080913B0136
S1131D70813059F442E060E081E993E00E9404027A
S1131D8060E081E00E94DF0619C082E00E94450104
S1131D9020E030E040E450E40E946B17181674F41D
S1131DA080913B01813051F442E060E08CE993E0A2
S1131DB00E94040260E081E00E94DF0642E06AE0E3
S1131DC084E893E00E94040283E00E94450120E03D
S1131DD030E040E050E40E94421688237CF4809175
S1131DE03A01813059F442E06BE087EA93E00E94C3
S1131DF0040261E082E00E94DF063EC083E00E94AC
S1131E00450120E030E040E050E40E946B171816D2
S1131E10D4F483E00E94450120E030E040E450E443
S1131E200E94421618167CF080913A01813059F4D0
S1131E3042E06BE081EB93E00E94040260E082E008
S1131E400E94DF0619C083E00E94450120E030E0D3
S1131E5040E450E40E946B17181674F480913A0120
S1131E60813051F442E06BE08AEB93E00E9404027B
S1131E7060E082E00E94DF0643E06AE084E893E0E9
S1131E800E9404020E94980C80E00E9430010E948B
S1131E90280C81E00E9430010E94360CE5CEC05728
S1131EA0DE4F0FB6F894DEBF0FBECDBFDF91CF91EA
S1131EB01F910F91FF90EF90DF90CF90BF90AF9064
S1131EC00895CF93C1E086E090E00E94C302019799
S1131ED009F4FAC08091000090E00E94F81C81305F
S1131EE029F4C0936200109261000DC0823029F47D
S1131EF010926200C093610006C0833021F4C09345
S1131F006200C093610082E090E00E94C3020197E6
S1131F1019F4C09360000EC083E090E00E94C302F5
S1131F20019721F482E08093600014C080916000E6
S1131F30813061F442E062E08AE092E00E940402AF
S1131F404C2F62E082E491E00E94040280916000E0
S1131F50823061F44C2F62E08AE092E00E94040235
S1131F6042E062E082E491E00E94040240E06AE020
S1131F7080E491E00E94040243E06AE084EC93E090
S1131F800E94040242E062E183E491E00E940402C0
S1131F9042E060E085E591E00E94040280916000E7
S1131FA08130F9F485E090E00E94C302019741F486
S1131FB01092620080916000823009F07FC015C0E9
S1131FC080916000813069F484E090E00E94C30253
S1131FD0019739F4C093620080916000823049F522
S1131FE004C080916000823001F585E090E00E9499
S1131FF0C302019741F41092610080916200813024
S113200009F043C02CC080916000823071F484E0F8
S113201090E00E94C302019741F4C0936100809153
S11320206200813009F04DC008C0809162008130A7
S113203061F580916100813091F44C2F65E086EC6C
S113204093E00E94040242E065E080ED93E00E9488
S1132050040263E080E090E00E94001D34CF809190
S11320606100811130CF4C2F65E086EC93E00E9433
S1132070040242E065E08AED93E00E9404026C2FC2
S113208080E090E00E94001D1ECF81111CCF809142
S11320906100813009F017CF4C2F65E084EE93E0A6
S11320A00E94040242E065E080ED93E00E94040295
S11320B062E080E090E00E94001D05CF8091620004
S11320C0E4CF882349F3FFCECF9108958F929F9256
S11320D0AF92BF92CF92DF92EF92FF920F931F9332
S11320E0CF93DF93C1E0C12CD12CE12CF12C00E083
S11320F010E0D1E00F2EF7E18F2EF02D912CA12CC2
S1132100B12C05C0CD2F03C0CD2F082D192D86E08D
S113211090E00E94C302892B69F10E94940280ED31
S11321200E949D0280E00E949D028C2D0E94650108
S11321300E949D028E2D0E9465010E949D02802FA7
S11321400E9465010E949D020E949A020E945E0202
S113215040E065E08EEE93E00E9404022FEF84E3FA
S11321609CE0215080409040E1F700C000000E94B4
S11321705E0220C162E082E00E94EA01C8010E947E
S1132180620242E064E08AE30E94F90162E086E0D0
S11321900E94EA01C7010E94620242E068E08AE309
S11321A00E94F90162E08AE00E94EA01C6010E94ED
S11321B0620285E090E00E94C302019719F4CF5FA8
S11321C0C43010F4C13031F54D2F66E080E20E9436
S11321D0F90143E066E080E20E94F9014D2F6AE0D4
S11321E080E20E94F90143E06AE080E20E94F90182
S11321F04D2F62E08EE50E94F90143E062E086E53E
S11322000E94F90182E090E00E94C302019709F064
S1132210BBC043C0C230F9F44D2F6AE080E20E9493
S1132220F90143E06AE080E20E94F9014D2F62E087
S113223080E20E94F90143E062E080E20E94F90139
S11322404D2F66E08EE50E94F90143E066E086E5E5
S11322500E94F90181C0C33009F07EC04D2F62E0B5
S113226080E20E94F90143E062E080E20E94F90109
S11322704D2F66E080E20E94F90143E066E080E2CF
S11322800E94F9014D2F6AE08EE50E94F90143E0B6
S11322906AE086E50E94F9015FC00F5F1F4F0831B5
S11322A011050CF07DC064C0C23059F42FEFE21A5E
S11322B0F20A8CE3E816F1040CF461C0EA2CFB2C5E
S11322C05EC082E090E00E94C302019769F4C330CB
S11322D059F49FEFC91AD90A2CE3C216D1040CF49D
S11322E04EC0CA2CDB2C4BC083E090E00E94C3029A
S11322F0019751F4C13041F4015011090AF002CFA1
S1132300CD2F082D192D03CF83E090E00E94C30246
S1132310019769F4C23059F481E0E81AF1080AF02F
S1132320F6CE0F2EFBE3EF2EF12CF02DF0CE83E052
S113233090E00E94C302019709F0E9CEC33009F08E
S1132340E6CE91E0C91AD1080AF0E1CE0F2EFBE3E4
S1132350CF2ED12CF02DDBCE82E090E00E94C30280
S113236082E090E00E94C302019709F0AACF9CCFBB
S113237083E090E00E94C302019761F4BDCF83E043
S113238090E00E94C302C0CF82E090E00E94C302AA
S1132390CD2F97CF83E090E00E94C302CD2FC7CF0B
S11323A083E090E00E94C302019709F4ADCE0A2DA8
S11323B01B2DF0CFDF91CF911F910F91FF90EF90E4
S11323C0DF90CF90BF90AF909F908F900895CF9360
S11323D0DF93C82F0E945E02D6E086E090E00E9460
S11323E0C302892B69F4C130C1F740E065E083EF93
S11323F093E00E9404020E946610D0933604EDCF4D
S1132400DF91CF9108950F931F93CF93DF93C3E090
S113241014E005E0D6E086E090E00E94C302019754
S113242009F48BC080913604823049F128F4882362
S113243061F08130D1F0EFCF843009F446C008F464
S11324406CC0853009F471C0E6CF41E06C2F8CEF8D
S113245093E00E94040242E06C2F87E094E00E9423
S1132460040281E080933604D6CF83E090E00E949A
S1132470C302019781F682E080933604CCCF41E019
S113248061E082E491E00E94040242E061E08AE0BB
S113249092E00E94040283E090E00E94C30201974C
S11324A011F41093360482E090E00E94C302019775
S11324B011F41093360485E090E00E94C302019762
S11324C009F0A9CFC0933604A6CF42E061E082E4CC
S11324D091E00E94040241E061E08AE092E00E94FF
S11324E0040283E090E00E94C302019719F482E0A1
S11324F08093360482E090E00E94C302019719F4AD
S113250082E08093360485E090E00E94C302019744
S113251009F081CF009336047ECF81E00E94E71159
S11325200E945E02D093360476CF82E00E94E711C7
S11325300E945E02D09336046ECFDF91CF911F913B
S11325400F910895CF93C82F0E945E02C13019F0F5
S1132550C23039F00DC00E94610F86E080933704C9
S113256007C00E945E020E94031286E08093370433
S1132570CF9108950F931F93CF93DF9314E0C3E09B
S113258005E0D6E086E090E00E94C302019719F4CA
S11325901092370494C080913704823091F128F46A
S11325A0882361F0813019F1EDCF843009F44FC0F4
S11325B008F475C0853009F47AC0E4CF41E06C2F8B
S11325C083E690E00E94040242E06C2F85E790E0ED
S11325D00E9404022FE788E391E02150804090405C
S11325E0E1F700C0000081E080933704CBCF83E0A3
S11325F090E00E94C302019729F682E08093370499
S1132600C1CF41E060E082E491E00E94040242E034
S113261060E08AE092E00E94040285E090E00E947B
S1132620C302019711F4C093370483E090E00E9441
S1132630C302019711F41093370482E090E00E94E2
S1132640C302019709F09ECF109337049BCF41E05A
S113265060E08AE092E00E94040242E060E082E4EA
S113266091E00E94040285E090E00E94C302019779
S113267011F40093370483E090E00E94C3020197B1
S113268019F482E08093370482E090E00E94C30250
S1132690019709F077CF82E08093370473CF0E94CB
S11326A05E0281E00E94A212D09337046BCF0E9495
S11326B05E0282E00E94A212D093370463CFDF91BE
S11326C0CF911F910F910895CF93C82F0E945E025E
S11326D0C230D1F018F4C13031F03EC0C33009F13A
S11326E0C43061F139C080E090E00E94F81C0E947F
S11326F0BF0C86E090E00E94C302019769F50E9436
S11327005E021092380428C00E94680486E090E0BB
S11327100E94C302019701F50E945E0210923804E0
S11327201BC00E94940986E090E00E94C3020197B6
S113273099F40E945E02109238040EC00E945E0258
S11327400E94BA1286E090E00E94C302019721F42D
S11327500E945E0210923804CF910895CF92DF92C6
S1132760EF92FF920F931F93CF93DF930F2EF6E018
S1132770CF2EF02D0F2EFAE0FF2EF02D17E0D5E02E
S11327800BE00F2EF9E0DF2EF02D6894EE24E3F831
S1132790C3E28091380490E0FC018C309105E0F7AD
S11327A0E05BFF4F0C94001B1092400410923F0416
S11327B040E050E04430510558F4C49FC001C59F27
S11327C0900D11246D2F89579F4F0E94040209C058
S11327D0C49FC001C59F900D112489579F4F0E942B
S11327E0170240913F04509140044F5F5F4F509354
S11327F0400440933F0445305105E0F281E080936A
S11328003804C7CF40E062E082E491E00E94040211
S113281083E090E00E94C302019709F0BACF1093BD
S11328203804B7CF41E062E08AE092E00E940402FB
S113283043E062E08AE092E00E94040243E063E144
S11328408AE092E00E94040240E062E082E491E0C7
S11328500E94040283E090E00E94C302019711F4F5
S1132860E092380482E090E00E94C302019711F4E0
S11328700093380486E090E00E94C302019709F0B7
S113288088CF82E08093380484CF40E062E08AE01D
S113289092E00E94040242E062E08AE092E00E9438
S11328A0040243E062E08AE092E00E94040243E012
S11328B063E18AE092E00E94040241E062E082E483
S11328C091E00E94040283E090E00E94C302019719
S11328D011F4D092380482E090E00E94C302019780
S11328E011F41093380485E090E00E94C30201972C
S11328F011F40093380486E090E00E94C30201972B
S113290009F047CF83E08093380443CF40E062E08E
S11329108AE092E00E94040241E062E08AE092E0F0
S11329200E94040243E062E08AE092E00E94040212
S113293043E063E18AE092E00E94040242E062E044
S113294082E491E00E94040282E090E00E94C302CB
S1132950019741F4E092380442E06D2F8DEC90E051
S11329600E94040283E090E00E94C302019741F4B4
S1132970F092380442E06D2F8DEC90E00E94040246
S113298085E090E00E94C302019741F4009338046B
S113299042E06D2F8DEC90E00E94040286E090E00E
S11329A00E94C302019709F0F4CE84E080933804B6
S11329B042E06D2F8DEC90E00E940402EACE40E0EC
S11329C062E08AE092E00E94040241E062E08AE070
S11329D092E00E94040242E062E08AE092E00E94F7
S11329E0040243E062E082E491E00E94040243E0D6
S11329F063E18AE092E00E94040282E090E00E9497
S1132A00C302019741F4D092380443E06D2F80EF64
S1132A1090E00E94040283E090E00E94C3020197C8
S1132A2041F41093380443E06D2F80EF90E00E944E
S1132A30040285E090E00E94C302019741F40093F0
S1132A40380443E06D2F80EF90E00E94040286E09A
S1132A5090E00E94C302019709F09BCED093380402
S1132A6043E06D2F80EF90E00E94040292CE40E09C
S1132A7062E08AE092E00E94040241E062E08AE0BF
S1132A8092E00E94040242E062E08AE092E00E9446
S1132A90040243E062E08AE092E00E94040243E020
S1132AA063E184E194E00E94040282E090E00E94E9
S1132AB0C302019711F4F092380483E090E00E947D
S1132AC0C302019711F41093380485E090E00E944A
S1132AD0C302019711F41093380484E090E00E943B
S1132AE0C302019711F4F092380486E090E00E944A
S1132AF0C302019709F04DCEC09238044ACE109219
S1132B00380481E00E9464130E945E0242CE109257
S1132B10380482E00E9464130E945E023ACE10924E
S1132B20380483E00E9464130E945E0232CE109245
S1132B30380484E00E9464130E945E022ACE10923C
S1132B403904DF91CF911F910F91FF90EF90DF90A7
S1132B50CF900895809139048130E1F018F08230EB
S1132B6019F126C081E0809339040E945E0240E09E
S1132B7065E086E194E00E94040241E065E08BE1B7
S1132B8094E00E94040242E065E081E294E00E9445
S1132B9004020EC086E090E00E94C302019741F453
S1132BA082E08093390404C0109238040E94AE136A
S1132BB08FE19EE40197F1F700C0000008958FB5FE
S1132BC0826A8FBD8EB583618EBD8EB582608EBDE7
S1132BD08BE992E097BD86BD81E090E09BBD8ABD04
S1132BE099BD88BD089581E080933B048AE390E019
S1132BF09BBD8ABD089581E080933A048AE390E006
S1132C0099BD88BD089582E080933B048DEB90E0EC
S1132C109BBD8ABD089582E080933A048DEB90E0D9
S1132C2099BD88BD089590BD89B98AB188618AB972
S1132C30599A579A80B5866880BD789408955D9BAB
S1132C40FECF8CB90895CF93DF93EC01888188235C
S1132C5031F021960E941F1689918111FBCFDF91DB
S1132C60CF9108951F920F920FB60F9211240F90D7
S1132C700FBE0F901F9018955F9BFECF8CB1809371
S1132C803C0408950E94F61608F481E008950E9419
S1132C905B160C9431170E942A1758F00E942317D0
S1132CA040F029F45F3F29F00C941A1751110C9449
S1132CB065170C9420170E94421768F39923B1F307
S1132CC0552391F3951B550BBB27AA27621773074E
S1132CD0840738F09F5F5F4F220F331F441FAA1FE2
S1132CE0A9F335D00E2E3AF0E0E832D0915050409E
S1132CF0E695001CCAF72BD0FE2F29D0660F771F4C
S1132D00881FBB1F261737074807AB07B0E809F031
S1132D10BB0B802DBF01FF2793585F4F3AF09E3FB6
S1132D20510578F00C941A170C9465175F3FE4F37F
S1132D30983ED4F3869577956795B795F7959F5FF9
S1132D40C9F7880F911D9695879597F90895E1E045
S1132D50660F771F881FBB1F621773078407BA07A4
S1132D6020F0621B730B840BBA0BEE1F88F7E095FF
S1132D700895E89409C097FB3EF49095809570956A
S1132D8061957F4F8F4F9F4F9923A9F0F92F96E9B3
S1132D90BB279395F695879577956795B795F11128
S1132DA0F8CFFAF4BB0F11F460FF1BC06F5F7F4FC5
S1132DB08F4F9F4F16C0882311F096E911C07723D7
S1132DC021F09EE8872F762F05C0662371F096E8E0
S1132DD0862F70E060E02AF09A95660F771F881FAF
S1132DE0DAF7880F9695879597F90895990F000853
S1132DF0550FAA0BE0E8FEEF16161706E807F907C9
S1132E00C0F012161306E407F50798F0621B730B63
S1132E10840B950B39F40A2661F0232B242B252BE4
S1132E2021F408950A2609F4A140A6958FEF811D87
S1132E30811D089597F99F6780E870E060E0089528
S1132E409FEF80EC089500240A94161617061806BE
S1132E500906089500240A9412161306140605069A
S1132E600895092E0394000C11F4882352F0BB0F2B
S1132E7040F4BF2B11F460FF04C06F5F7F4F8F4F8E
S1132E809F4F089557FD9058440F551F59F05F3FC9
S1132E9071F04795880F97FB991F61F09F3F79F078
S1132EA087950895121613061406551FF2CF4695FA
S1132EB0F1DF08C0161617061806991FF1CF86957C
S1132EC07105610508940895E894BB276627772760
S1132ED0CB0197F908950E94F61608F48FEF089530
S1132EE0A3E1B0E0E6E7F7E10C94061B6C014B01AB
S1132EF02A01FC0117821682838181FF43C3AE013C
S1132F004F5F5F4F3A01F6019381F40193FD859180
S1132F1093FF81914F01882309F430C3853239F43A
S1132F2093FD859193FF81914F01853239F4B60168
S1132F3090E00E943F1C52012501E5CF10E0F12CE6
S1132F4020E02032A0F48B3269F030F4803259F062
S1132F50833269F420612CC08D3239F0803339F426
S1132F60216026C02260246023C0286021C027FD80
S1132F7027C030ED380F3A3078F426FF06C0FAE067
S1132F801F9F300D1124132F13C04AE0F49E300DFF
S1132F901124F32E20620CC08E3221F426FDEEC2E1
S1132FA0206406C08C3611F4206802C0883641F4CF
S1132FB0F40193FD859193FF81914F018111C1CF5C
S1132FC09BEB980F933018F42061805E06C09BE958
S1132FD0980F933008F071C12F7E26FF16E02F73EF
S1132FE0322E853619F42064322E08C0863621F438
S1132FF0F22FF0683F2E02C01111115037FE07C0A6
S11330001C3350F4EE24E394E10E27E00BC0183097
S113301038F027E017E005C027E04CE3E42E02C0B7
S1133020212FE12C520144E0A40EB11CF201608175
S11330307181828193810E2DA3010E94511B2C0169
S1133040098100FF02C003FF07C031FC08C032FE43
S113305009C030E2232E07C02DE2222E04C09BE2D9
S1133060292E01C0212C802F8C7019F0211068C2E8
S1133070A8C237FE0FC0E40C04FF04C08A81813368
S113308009F4EA941E1474F5F8E0FE1578F588E066
S1133090E82E2CC036FC2AC0812F90E084159505BB
S11330A09CF02CEF42162FEF520674F0432D40682B
S11330B0342E0AC0E2E0F0E0EC0FFD1FE10FF11D39
S11330C08081803319F411501111F4CF37FE0EC0F2
S11330D0EE24E394E10E812F90E0481659062CF477
S11330E0141904C0EE24E39401C010E037FE06C0B6
S11330F01414150434F4C201019605C085E090E06F
S113310002C081E090E021100196112331F0212FBB
S113311030E02F5F3F4F820F931F2F2D30E0821737
S1133120930714F4F81A01C0F12C832D897049F423
S1133130FF2039F0B60180E290E00E943F1CFA942F
S1133140F7CF222029F0B601822D90E00E943F1C87
S113315033FC09C0FF2039F0B60180E390E00E94FF
S11331603F1CFA94F7CF37FE5AC0942D852D57FE95
S113317002C090E080E0292E382E20E030E0A20149
S11331804E1951095D874C87A201421953095F8783
S11331904E87612F70E044275527461B570B598BE8
S11331A0488B5FEF2516350649F4B6018EE290E0B0
S11331B02A8B3B8B0E943F1C3B892A89421453046F
S11331C06CF04C855D854215530544F4EE85FF850E
S11331D0E20FF31FE60DF71D818101C080E351E08A
S11331E0251A31082F5F3F4F48895989241635061F
S11331F04CF0B60190E02A8B3B8B0E943F1C2A893D
S11332003B89CFCF2414350439F49A81963318F4CA
S1133210953311F404FF81E3B60190E04BC08A8139
S1133220813309F00F7EB60190E00E943F1C11111A
S113323005C034FC18C085E690E017C0B6018EE2E4
S113324090E00E943F1C82E0EE24E394E80EF30138
S1133250E80FF11D8081B60190E00E943F1C1150DF
S11332608E2D91F7E6CF85E490E0B6010E943F1CD5
S113327057FC05C04114510439F404FF05C05194AE
S1133280419451088DE201C08BE2B60190E00E94A6
S11332903F1C80E39AE0491651042CF08F5F5AE0FA
S11332A0451A5108F7CFB60190E00E943F1CB601C1
S11332B0C201C0960E943F1C57C1833631F0833748
S11332C079F0833509F058C021C05201E2E0AE0E16
S11332D0B11CF2018081898301E010E0230114C054
S11332E05201F2E0AF0EB11CF2014080518026FF82
S11332F003C0612F70E002C06FEF7FEFC2012A8B21
S11333000E94341C8C012A892F7715C05201F2E0E7
S1133310AF0EB11CF2014080518026FF03C0612F23
S113332070E002C06FEF7FEFC2012A8B0E94291C5C
S11333308C012A892068322E23FD1AC08F2D90E03B
S113334008171907A8F4B60180E290E00E943F1C18
S1133350FA94F4CFF20137FC859137FE81912F0165
S1133360B60190E00E943F1CF110FA94015011093B
S11333700115110579F7F8C0843611F0893659F52D
S1133380520127FF09C0F4E0AF0EB11CF2016081C5
S11333907181828193810AC0F2E0AF0EB11CF20107
S11333A060817181072E000C880B990B2F76322EC9
S11333B097FF09C090958095709561957F4F8F4FC9
S11333C09F4F2068322E2AE030E0A3010E949A1C0D
S11333D0E82EE6183FC0022F853721F40F7E2AE03D
S11333E030E01DC0097F8F3691F018F4883559F00C
S11333F0C5C0803719F0883711F0C0C0006104FFE0
S113340009C0046007C024FF08C0066006C028E0A5
S113341030E005C020E130E002C020E132E052019A
S113342007FF09C0F4E0AF0EB11CF20160817181A5
S11334308281938108C0F2E0AF0EB11CF201608179
S1133440718180E090E0A3010E949A1CE82EE618A6
S11334500F77302E36FE0BC0332D3E7FE11650F42D
S113346034FE0AC032FC08C0332D3E7E05C00E2D4A
S1133470332D03C00E2D01C0012F34FF0CC0FE01FB
S1133480EE0DF11D8081803311F4397E08C032FFC6
S113349005C00E5F04C0832F867809F00F5F33FDEB
S11334A013C030FF06C01E2D0F1518F41F0D101B7E
S11334B00F2D0F1568F4B60180E290E03B8B0E945B
S11334C03F1C0F5F3B89F5CF0F1510F4F01A01C0B4
S11334D0F12C34FF12C0B60180E390E03B8B0E94D4
S11334E03F1C3B8932FF17C031FD03C088E790E0E1
S11334F002C088E590E0B6010CC0832F867859F0AD
S113350031FF02C08BE201C080E237FD8DE2B601DB
S113351090E00E943F1CE11638F4B60180E390E08D
S11335200E943F1C1150F7CFEA94F301EE0DF11DF8
S11335308081B60190E00E943F1CE110F5CF14C0D9
S1133540F4E0FF1558F584E0F81A33FE1EC021108C
S113355026C003FF2AC008EB10E0F32DF0713F2EC4
S1133560F8018491811124C0FF2009F4E5CCB6014F
S113357080E290E00E943F1CFA94F6CFF601868127
S1133580978126C08FEF9FEF23C0B60180E290E0C1
S11335900E943F1CFA94F110F8CFD9CFF12CB60158
S11335A0822D90E00E943F1CD4CF0CEB10E0D5CFCD
S11335B031108052B60190E00E943F1C0F5F1F4FF4
S11335C0CFCF23E02F1510F483E0BECFF12CC1CF71
S11335D06396E2E10C94221B97FB072E16F40094E9
S11335E007D077FD09D00E943D1B07FC05D03EF4AF
S11335F0909581959F4F0895709561957F4F08959B
S1133600EE0FFF1F0590F491E02D09942F923F9245
S11336104F925F926F927F928F929F92AF92BF92DE
S1133620CF92DF92EF92FF920F931F93CF93DF938A
S1133630CDB7DEB7CA1BDB0B0FB6F894DEBF0FBEE7
S1133640CDBF09942A88398848885F846E847D8434
S11336508C849B84AA84B984C884DF80EE80FD8036
S11336600C811B81AA81B981CE0FD11D0FB6F894AC
S1133670DEBF0FBECDBFED010895AA1BBB1B51E1F8
S113368007C0AA1FBB1FA617B70710F0A61BB70BCE
S1133690881F991F5A95A9F780959095BC01CD0173
S11336A00895283008F027E03327DA01990F311DF7
S11336B087FD916000966105710539F432602E5FD3
S11336C03D9330E32A95E1F708959F3F30F0803829
S11336D07105610509F03C5F3C5F3D93913008F052
S11336E08068911DDF93CF931F930F93FF92EF9206
S11336F0192F987F9695E92F96959695E90FFF27B0
S1133700E65EFE4F99273327EE24FF24A701E70145
S113371005900894079428F4360FE71EF81E491FF5
S1133720511D660F771F881F991F0694A1F70590F6
S1133730079428F4E70EF81E491F561FC11D770F82
S1133740881F991F661F0694A1F70590079428F413
S1133750F80E491F561FC71FD11D880F991F661FDA
S1133760771F0694A1F70590079420F4490F561F7C
S1133770C71FD81F990F661F771F881F0694A9F7C4
S113378084911095177041F0D695C7955795479534
S1133790F794E7941A95C1F7E0ECF0E0689415907B
S11337A0159135916591959105907FE27395E11896
S11337B0F10A430B560BC90BD009C0F7E10CF11EFB
S11337C0431F561FC91FD01D7EF4703311F48A9510
S11337D0E6CFE894015030F0080F0AF400270217EE
S11337E008F4202F2395022F7A3328F079E37D9370
S11337F02A95E9F710C07D932A9589F60694979542
S11338006795379517951794E118F10A430B560BF2
S1133810C90BD00998F023957E9173957A3308F0FB
S113382070E37C932013B8F77E9170617D9330F040
S1133830839571E37D9370E32A95E1F71124EF906A
S1133840FF900F911F91CF91DF91992787FD90955C
S11338500895FC010590615070400110D8F78095DF
S113386090958E0F9F1F0895FC0161507040019048
S11338700110D8F7809590958E0F9F1F08950F9390
S11338801F93CF93DF93FB01238121FD03C08FEFAF
S11338909FEF28C022FF16C04681578124813581BD
S11338A04217530744F4A081B1819D012F5F3F4F1C
S11338B0318320838C93268137812F5F3F4F378359
S11338C0268310C0EB01092F182F0084F185E02D09
S11338D00995892BE1F68E819F8101969F838E83C2
S11338E0812F902FDF91CF911F910F910895AEE01A
S11338F0B0E0EDE7FCE10C94141B0D891E8986E011
S11339008C831A8309838FEF9FE79E838D83AE0197
S1133910475E5F4F6F89788DCE0101960E947017C4
S11339202F813885F801E20FF31F10822E96E4E010
S11339300C94301BFA01AA27283051F1203181F16F
S1133940E8946F936E7F6E5F7F4F8F4F9F4FAF4FA3
S1133950B1E03ED0B4E03CD0670F781F891F9A1FB6
S1133960A11D680F791F8A1F911DA11D6A0F711D6A
S1133970811D911DA11D20D009F468943F912AE076
S1133980269F11243019305D3193DEF6CF0108955E
S1133990462F4770405D4193B3E00FD0C9F7F6CF8F
S11339A0462F4F70405D4A3318F0495D31FD405257
S11339B0419302D0A9F7EACFB4E0A69597958795ED
S11339C077956795BA95C9F70097610571050895CC
S11339D09B01AC010A2E0694579547953795279578
S11339E0BA95C9F7620F731F841F951FA01D089510
S11339F0E199FECF9FBB8EBBE09A99278DB30895C2
S1133A00262FE199FECF9FBB8EBB2DBB0FB6F8943A
S1113A10E29AE19A0FBE01960895F894FFCF52
S1133A1E01010153657474696E6773205A6F6E6584
S1133A2E200000000053657474696E677320546936
S1133A3E6D6520000000004175746F2000000000C9
S1133A4E0000000000000000000000000000000064
S1133A5E000000000000000000004D616E75616CF6
S1133A6E2020000000000000000000000000000004
S1133A7E0000000000000000000000000050432F72
S1133A8E416E64726F696400000000000000000063
S1133A9E0000000000000000000000000000000014
S1133AAE73657474696E6773200000000000000073
S1133ABE00000000000000000000000000000000F4
S1133ACE000000457869742000000000000000002A
S1133ADE00000000000000000000000000000000D4
S1133AEE0000000000000101010101012564200015
S1133AFE5E002D3E004C6F616420312D004C6F61D1
S1133B0E6420322D003C004C6F616420332D004C38
S1133B1E6F616420342D0053455256312D005345A8
S1133B2E5256322D003E4C6F6164312D4F4E2000A3
S1133B3E3E4C6F6164312D4F4646003E4C6F6164BE
S1133B4E322D4F4E20003E4C6F6164322D4F46464F
S1133B5E003E4C6F6164315F4F4E20003E4C6F61EE
S1133B6E64315F4F4646003E4C6F6164325F4F4E88
S1133B7E20003E4C6F6164325F4F4646003E4C6FF0
S1133B8E6164335F4F4E20003E4C6F6164335F4F70
S1133B9E4646003E4C6F6164345F4F4E20003E4CEF
S1133BAE6F6164345F4F46460020204D616E75612F
S1133BBE6C20636F6E74726F6C2020200020417530
S1133BCE746F2D636F6E74726F6C202020004D6FB6
S1133BDE6E69746F722053797374656D212100526E
S1133BEE6573657420636F6D6D616E6420003E4F66
S1133BFE46462D316C6F6164003E4F4E202D316C64
S1133C0E6F6164003E4F46462D326C6F6164003E18
S1133C1E4F4E202D326C6F6164003E4F46462D335D
S1133C2E6C6F6164003E4F4E202D336C6F616400E7
S1133C3E3E4F46462D346C6F6164003E4F4E202D30
S1133C4E346C6F6164003E4F46462D536572763177
S1133C5E003E4F4E202D5365727631003E4F464640
S1133C6E2D5365727632003E4F4E202D536572767B
S1133C7E32003E4D6F6465204F6E6521003E4D6FE0
S1133C8E64652054776F21003E4D6F6465203321A7
S1133C9E212100543D252E31660053312D4F4E20E7
S1133CAE0053312D4F46460053322D4F4E200053B4
S1133CBE322D4F4646005A312D4F4E20005A312D8B
S1133CCE4F4646005A322D4F4E20005A4C322D4F3D
S1133CDE4646005A322D4F4646005A6F6E652D31B8
S1133CEE2D4F4E0054313D252E316643004C6F77D7
S1133CFE202020206C6576656C004D6964646C65CB
S1133D0E206C6576656C00486967682020204C65D8
S1133D1E76656C005A6F6E652D322D4F4E005432FF
S1133D2E3D252E316643004D69646C6C65206C65CF
S1133D3E76656C007C004C6F77202020206C6576B5
S1133D4E004D69646C6C65206C6576004869676823
S1133D5E2020204C6576004C6F772020206C6576F1
S1133D6E004D69646C6C652D6C0048696768202091
S1133D7E4C65760056005A6F6E65312D4F4E2000FD
S1133D8E5A6F6E65322D4F4E20005A6F6E65322D6E
S1133D9E4F4646005A6F6E65312D4F4646005361AD
S1133DAE7665005365742054696D650054696D65BC
S1133DBE20636C6F636B0054696D6520436F6E7482
S1133DCE726F6C003F004D656E75005072657373B3
S10B3DDE0053656C6563740079
S9030000FC
