S015000050726F6A6563745F526F626F742E73726563D3
S113000012C059C020C01FC01EC01DC01CC01BC0D0
S11300101AC019C018C017C016C015C014C013C028
S113002012C011C010C011241FBECFE5D4E0DEBF42
S1130030CDBF20E0A0E6B0E001C01D92A236B20719
S1130040E1F7A3D056C1DCCF8FEF84BB15BA8B9AEE
S11300508C9A8D9A8E9A9398949895989698B89A23
S1130060BE9ABF9AC698C798C09808958F9A9798D1
S11300708A9892980895979A86E08A95F1F700C035
S11300809798089585B7816085BF8BB780648BBFCF
S11300900895882331F01DBC1CBC8EB582608EBDD2
S11300A008958EB58D7F8EBD8DB590E0982F8827ED
S11300B02CB5822B08951F920F920FB60F92112424
S11300C02F933F934F935F936F937F938F939F935C
S11300D0AF93BF93EF93FF93829B03C081E0D9DF7B
S11300E006C080E0D6DF9093610080936000FF91AA
S11300F0EF91BF91AF919F918F917F916F915F919C
S11301004F913F912F910F900FBE0F901F90189514
S1130110B2DF87EA91E60197F1F700C00000609131
S1130120600070916100660F771F660F771F660F7E
S1130130771F80E090E02AE330E040E050E0B7D061
S1130140DA01C9010296A11DB11D08950F931F93F1
S1130150CF93DF938C010B9780F0CFEFD1E0C69A59
S1130160C79A93D02197D9F708C0CFEFD1E0C69AA8
S1130170C79A94D02197D9F703C005301105A8F385
S1130180DF91CF911F910F9108955EDF6FDF7ADFCA
S11301907894C09ABDDFDADFFCCFA89A939AA99825
S11301A09498AA989598AB98969889EF90E00197BF
S11301B0F1F700C000000895A89A939AAB9A969A12
S11301C0A9989498AA98959889EF90E00197F1F7E7
S11301D000C000000895AB9A969AA8989398A9989D
S11301E09498AA98959889EF90E00197F1F700C048
S11301F000000895AB9A969AAA9A959AA89893980B
S1130200A998949889EF90E00197F1F700C0000055
S11302100895AA9A959AA8989398A9989498AB98AF
S1130220969889EF90E00197F1F700C000000895D7
S1130230AA9A959AA99A949AA8989398AB989698FA
S113024089EF90E00197F1F700C000000895A99AA2
S1130250949AA8989398AA989598AB98969889EFA9
S113026090E00197F1F700C000000895A89A939ACE
S1130270A99A949AAA989598AB98969889EF90E041
S11302800197F1F700C00000089587DF95DFA3DF31
S1130290B1DFBFDFCDDFDBDFE9DF0895E7DFD7DFE5
S11302A0C7DFB7DFA7DF97DF87DF77DF0895A1E236
S11302B01A2EAA1BBB1BFD010DC0AA1FBB1FEE1FDC
S11302C0FF1FA217B307E407F50720F0A21BB30B27
S11302D0E40BF50B661F771F881F991F1A9469F7A3
S11302E060957095809590959B01AC01BD01CF01FF
S10902F00895F894FFCF0D
S9030000FC
