:100000000C9472000C9487000C9487000C94870069
:100010000C9487000C9487000C9487000C94870044
:100020000C9487000C9487000C9487000C94870034
:100030000C9487000C9487000C9487000C94870024
:100040000C9487000C9487000C9487000C94870014
:100050000C9487000C9487000C9487000C94870004
:100060000C9487000C9487000C9487000C948700F4
:100070000C9487000C9487000C9487000C948700E4
:100080000C9487000C9487000C9487000C948700D4
:100090000C9487000C9487000C9487000C948700C4
:1000A0000C9487000C9487000C9487000C948700B4
:1000B0000C9487000C9487000C9487000C948700A4
:1000C0000C9487000C9487000C9487000C94870094
:1000D0000C9487000C9487000C9487000C94870084
:1000E0000C94870011241FBECFEFD1E2DEBFCDBF3D
:1000F00012E0A0E0B2E0EAE0F2E002C005900D926A
:10010000A431B107D9F70E948D000C9403010C941F
:10011000000080E28093B800089587E690E00E9496
:10012000A90087E690E00E94BF000E94890083E555
:100130000E94D5008AE00E94D5008DE00E94D50083
:1001400080E092E00E94E5008AE092E00E94F400E4
:10015000FFCF9093C5008093C400E1ECF0E088E10C
:100160008083808180688083E0ECF0E08081826021
:100170008083E2ECF0E080818E608083089590932C
:10018000D5008093D400E1EDF0E088E180838081A8
:1001900080688083E0EDF0E0808182608083E2ED22
:1001A000F0E080818E6080830895E0ECF0E0908143
:1001B00095FFFDCF8093C6000895E0EDF0E09081BB
:1001C00095FFFDCF8093D6000895CF93DF93EC0188
:1001D0008881882331F021960E94D5008991811170
:1001E000FBCFDF91CF910895CF93DF93EC0188810E
:1001F000882331F021960E94DD0089918111FBCF87
:0A020000DF91CF910895F894FFCF2D
:10020A00426C6574686F6F74680052462D4D6F6456
:04021A00756C65009A
:00000001FF
