S018000050726F6A6563745F526F626F745F56322E73726563E9
S113000012C06DC02BC02AC029C028C027C026C07A
S113001025C024C023C022C021C020C01FC01EC0D0
S11300201DC01CC01BC011241FBECFE5D4E0DEBF21
S1130030CDBF10E0A0E6B0E0E6ECF8E002C0059029
S11300400D92A436B107D9F720E0A4E6B0E001C0D0
S11300501D92A636B207E1F79AD033C4D1CFBC9A29
S1130060BD9AC498C598B99AC19887B3847087BB60
S1130070C29AB898C09A889A899A8B9A8C9A8D9ABF
S11300808E9A909A93989498959896988FEF84BBAB
S113009015BA08958F9A97988A9892980895979A7E
S11300A086E08A95F1F700C09798089585B7816036
S11300B085BF8BB780648BBF0895882331F01DBC46
S11300C01CBC8EB582608EBD08958EB58D7F8EBDAD
S11300D08DB590E0982F88272CB5822B08951F9218
S11300E00F920FB60F9211242F933F934F935F9368
S11300F06F937F938F939F93AF93BF93EF93FF93EC
S1130100829B03C081E0D9DF06C080E0D6DF9093F4
S1130110650080936400FF91EF91BF91AF919F912F
S11301208F917F916F915F914F913F912F910F909C
S11301300FBE0F901F901895B2DF87EA91E60197E2
S1130140F1F700C000006091640070916500660FD3
S1130150771F660F771F660F771F80E090E02AE312
S113016030E040E050E0C5D0DA01C9010196A11D9C
S1130170B11D9927089585B5836485BD85B58062D1
S113018085BD85B5826085BD81E083BD0895CF932B
S1130190DF93CDB7DEB7C456D1090FB6F894DEBFEE
S11301A00FBECDBF5CDF76DF81DF789489E190E01C
S11301B085D0E1DF83E689D08FE687D08EE685D0CF
S11301C08EE683D085E681D08BE67FD084E77DD030
S11301D08DE07BD08AE079D0D12C0F2EF0E6EF2E83
S11301E0F0E0FF2EF02D8E010F5F1F4F0F2EFFE06A
S11301F0CF2EF02D0F2EF2E89F2EF02D0F2EFAEFBA
S11302007F2EF02D6894AA24A4F80F2EF7E2BF2EB7
S1130210F02D92DF882E99279C01215031093F93BC
S11302202F93FF92EF921F930F9385D0C80151D063
S11302308DE04BD08AE049D00F900F900F900F9033
S11302400F900F90B09907C08FE493EC0197F1F7EA
S113025000C00000D39491E0D9121BC0C49AC59A7F
S1130260C19AA89AAA9AB29910C087EA91E601970E
S1130270F1F700C00000C498939873BC87EA91E634
S11302800197F1F700C0000015C0939A959A93BCAA
S113029011C093989598C198C3BCC198A898AA987E
S11302A009C02A2D3B2D9398C498C59A2150310931
S11302B0D1F7AFCF94E09815A0F7ABCF90BD89B933
S11302C01BB8539A86E880BD08955D9BFECF8CB918
S11302D00895DC019C91992359F020E09CB95D9B21
S11302E0FECF2F5FFD01E20FF11D90819111F6CF3A
S11302F00895A1E21A2EAA1BBB1BFD010DC0AA1F63
S1130300BB1FEE1FFF1FA217B307E407F50720F07A
S1130310A21BB30BE40BF50B661F771F881F991FF5
S11303201A9469F760957095809590959B01AC013E
S1130330BD01CF010895AEE0B0E0E0EAF1E098C27B
S11303400D891E8986E08C831A8309838FEF9FE7CA
S11303509E838D83AE01475E5F4F6F89788DCE019A
S1130360019609D02F813885F801E20FF31F10821E
S11303702E96E4E099C2ACE0B0E0E0ECF1E06AC2B1
S11303807C016B018A01FC0117821682838181FF43
S1130390B0C1CE0101964C01F7019381F60193FDA2
S11303A0859193FF81916F01882309F49EC1853261
S11303B039F493FD859193FF81916F01853221F486
S11303C0B70190E0B1D1E8CF512C312C20E020329C
S11303D0A0F48B3269F030F4803259F0833269F43E
S11303E020612CC08D3239F0803339F4216026C06D
S11303F02260246023C0286021C027FD27C030ED7F
S1130400380F3A3078F426FF06C0FAE05F9E300DCC
S11304101124532E13C08AE0389E300D1124332E3C
S113042020620CC08E3221F426FD5FC1206406C018
S11304308C3611F4206802C0883641F4F60193FD2D
S1130440859193FF81916F018111C1CF982F9F7D79
S11304509554933028F40C5F1F4FFFE3F9830DC0CC
S1130460833631F0833771F0833509F057C021C0EA
S1130470F801808189830E5F1F4F44244394512CDB
S1130480540114C03801F2E06F0E711CF801A08011
S1130490B18026FF03C0652D70E002C06FEF7FEFCF
S11304A0C5012C8736D12C0183012C852F77222E70
S11304B016C03801F2E06F0E711CF801A080B18003
S11304C026FF03C0652D70E002C06FEF7FEFC5010A
S11304D02C8714D12C012C852068222E830123FC27
S11304E019C0832D90E048165906A0F4B70180E2A4
S11304F090E01AD13A94F5CFF50127FC859127FEB7
S113050081915F01B70190E00FD131103A94F1E08D
S11305104F1A51084114510479F7DEC0843611F0A2
S1130520893631F5F80127FF07C060817181828126
S113053093810C5F1F4F08C060817181072E000CEE
S1130540880B990B0E5F1F4F2F76722E97FF09C0F1
S113055090958095709561957F4F8F4F9F4F206840
S1130560722E2AE030E0A40117D1A82EA81843C0A7
S1130570853729F42F7EB22E2AE030E025C0F22FF1
S1130580F97FBF2E8F36C1F018F4883579F0ADC0ED
S1130590803719F0883721F0A8C02F2F2061B22EA0
S11305A0B4FE0DC08B2D8460B82E09C024FF0AC090
S11305B09F2F9660B92E06C028E030E005C020E1E8
S11305C030E002C020E132E0F801B7FE07C06081EC
S11305D07181828193810C5F1F4F06C0608171819C
S11305E080E090E00E5F1F4FA401D6D0A82EA8187B
S11305F0FB2DFF777F2E76FE0BC0372D3E7FA51493
S113060050F474FE0AC072FC08C0372D3E7E05C04B
S1130610BA2C372D03C0BA2C01C0B52C34FF0DC041
S1130620FE01EA0DF11D8081803311F4397E09C089
S113063032FF06C0B394B39404C0832F867809F0C4
S1130640B39433FD12C030FF06C05A2CB31418F40F
S1130650530C5B18B32CB31460F4B70180E290E040
S11306603C8762D0B3943C85F6CFB31410F43B18A6
S113067001C0312C34FF11C0B70180E390E03C8706
S113068053D03C8532FF16C031FD03C088E790E0AB
S113069002C088E590E0B7010CC0832F867851F042
S11306A031FF02C08BE201C080E237FD8DE2B70169
S11306B090E03AD0A51430F4B70180E390E034D050
S11306C05A94F8CFAA94F401EA0DF11D8081B70180
S11306D090E02AD0A110F6CF332009F45DCEB70103
S11306E080E290E021D03A94F7CFF7018681978198
S11306F002C08FEF9FEF2C96E2E1C8C0FC01059089
S1130700615070400110D8F7809590958E0F9F1F0F
S11307100895FC016150704001900110D8F7809554
S113072090958E0F9F1F08950F931F93CF93DF9380
S1130730FB01238121FD03C08FEF9FEF28C022FF1F
S113074016C046815781248135814217530744F4EA
S1130750A081B1819D012F5F3F4F318320838C9312
S1130760268137812F5F3F4F3783268310C0EB01EB
S1130770092F182F0084F185E02D0995892BE1F6C6
S11307808E819F8101969F838E83812F902FDF918D
S1130790CF911F910F910895FA01AA27283051F1A2
S11307A0203181F1E8946F936E7F6E5F7F4F8F4F9E
S11307B09F4FAF4FB1E03ED0B4E03CD0670F781FFD
S11307C0891F9A1FA11D680F791F8A1F911DA11DE2
S11307D06A0F711D811D911DA11D20D009F468941B
S11307E03F912AE0269F11243019305D3193DEF6C3
S11307F0CF010895462F4770405D4193B3E00FD079
S1130800C9F7F6CF462F4F70405D4A3318F0495D63
S113081031FD4052419302D0A9F7EACFB4E0A69546
S11308209795879577956795BA95C9F70097610568
S1130830710508959B01AC010A2E069457954795BE
S113084037952795BA95C9F7620F731F841F951FB3
S1130850A01D08952F923F924F925F926F927F92C4
S11308608F929F92AF92BF92CF92DF92EF92FF92BC
S11308700F931F93CF93DF93CDB7DEB7CA1BDB0B68
S11308800FB6F894DEBF0FBECDBF09942A8839880D
S113089048885F846E847D848C849B84AA84B98414
S11308A0C884DF80EE80FD800C811B81AA81B98120
S11308B0CE0FD11D0FB6F894DEBF0FBECDBFED0134
S10908C00895F894FFCF37
S10708C62575200070
S9030000FC
