S01C000050726F6A6563745F53797374656D5F4C696768742E73726563F6
S11300000C9481000C949E000C949E000C949E0011
S11300100C949E000C949E000C949E000C949E00E4
S11300200C949E000C949E000C949E000C94B401BD
S11300300C949E000C949E000C949E000C949E00C4
S11300400C949E000C949E000C949E000C949E00B4
S11300500C949E009904B704B704B7046D04B70464
S1130060B704B704B704B704B704B704B704B704B4
S1130070B704B70441048304B704B704B704B7044E
S11300805704B704B704B704B704B704B704B704F4
S1130090B704B704A804B704B704B7047804B704D2
S11300A0B704B704B704B704B704B704B704B70474
S11300B0B704B7044C048E04B704B704B704B704F8
S11300C0620441A042A1E045A3A4A5A64BA74D48C4
S11300D04FA8504354A9AA58E1ABACE2ADAEADAFC2
S11300E0B0B161B2B3B4E365B6B7B8B9BABBBCBD1D
S11300F06FBE7063BF79E478E5C0C1E6C2C3C4C50E
S1130100C6C711241FBECFE5D4E0DEBFCDBF11E0CA
S1130110A0E6B0E0E4E3FFE002C005900D92A03F4A
S1130120B107D9F722E0A0EFB1E001C01D92AA30D7
S1130130B207E1F70E94C0040C9498070C940000E5
S113014080E280B9089584EA86BF06B607FEFDCF33
S1130150089584E986BF089583B984E886BF06B606
S113016007FEFDCF0895CF93DF93C82FD62F0E94AB
S1130170A3008D2F0E94AC008C2F0E94AC0084E958
S113018086BFDF91CF91089584EC86BF06B607FE43
S1130190FDCF83B108958AB3806F8ABB8BB38F7010
S11301A08BBB0895DB9A82E08A95F1F700C0DB9857
S11301B00895CF938AB38F708ABB8BB3806F8BBB48
S11301C0D99ADB9A00000000C9B3DB980000000054
S11301D00E94D20000000000CC239CF3D998CF9158
S11301E00895CF93DF93D82F0E94CB009D2F929533
S11301F09F70CD2FCF7090FDDC9A969590FDDD9A7F
S1130200969590FDDE9A969509F0DF9A0E94D200A9
S11302100E94CB00D0FDDC9A8C2F869580FDDD9A60
S1130220869580FDDE9A869509F0DF9A0E94D200B9
S11302308AB38F708ABB8BB38F708BBBDF91CF91E6
S11302400895CF93C82F0E94D9008C2F0E94F100EB
S1130250CF910895CF93C82F0E94D900DA9AC03C59
S113026030F0E0E4EC0FF0E0EE53FF4FC4918C2F3C
S11302700E94F100DA98CF910895623031F0633032
S113028031F0613029F4805C03C08C5E01C08C5A6B
S113029080680E9421010895CF93DF93EC01888147
S11302A0882331F021960E942A0189918111FBCF84
S11302B0DF91CF910895CF932FEF80E792E0215003
S11302C080409040E1F700C000008AB38E608ABB92
S11302D08BB3817F8BBB0E94CB00C3E08BB3806365
S11302E08BBB0E94D2008FE097E20197F1F700C028
S11302F00000C15099F70E94D9000E94CB00DD9AFA
S11303000E94D20088E20E9421018CE00E94210117
S113031086E00E94210182E00E94210181E00E9486
S11303202101CF91089581E00E9421010895CF9386
S1130330DF93CDB7DEB7E2970FB6F894DEBF0FBEFA
S1130340CDBF4AE0BE016F5F7F4F0E946307CE01BD
S113035001960E944C01E2960FB6F894DEBF0FBEE0
S1130360CDBFDF91CF9108951F920F920FB60F92D8
S113037011248F938CB18093F0018F910F900FBE55
S11303800F901F901895D0988AB38E6F8ABBD89A15
S11303908BB381708BBB84B3886F84BB85B3877048
S11303A085BBBC98C49ABB98C39ABA98C29AB998A8
S11303B0C19AB898C09A81B38C6381BB82B3837CA1
S11303C082BB0895813019F4929AAE9A08952FEF62
S11303D089E698E1215080409040E1F700C0000098
S11303E09298AE980895AF92CF92EF920F931F9385
S11303F0CF93DF93162FD42FC22F8130E9F401302D
S113040069F480E690E00E9404078DE00E94F30600
S11304108AE00E94F306929AAE9A0EC0023061F40A
S113042083E790E00E9404078DE00E94F3068AE0CF
S11304300E94F3069298AE981230F9F481E0E81223
S11304400DC087E890E00E9404078DE00E94F30647
S11304508AE00E94F306939AAD9A0FC082E0E812F4
S11304600CC08AE990E00E9404078DE00E94F30624
S11304708AE00E94F3069398AD98D330F9F481E0B2
S1130480C8120DC08EEA90E00E9404078DE00E941D
S1130490F3068AE00E94F306949AAC9A0FC082E0B5
S11304A0C8120CC081EC90E00E9404078DE00E9409
S11304B0F3068AE00E94F3069498AC98C430F9F4E9
S11304C081E0A8120DC085ED90E00E9404078DE044
S11304D00E94F3068AE00E94F306959AAB9A0FC035
S11304E082E0A8120CC088EE90E00E9404078DE020
S11304F00E94F3068AE00E94F3069598AB98DF9178
S1130500CF911F910F91EF90CF90AF9008958330CA
S113051081F128F4813049F08230C9F008958430A3
S1130520D9F1853009F44AC0089560E082E00E9460
S11305303D018CEF90E00E944C012FEF80E792E0A8
S1130540215080409040E1F700C00000089560E031
S113055082E00E943D018CE091E00E944C012FEF6B
S113056080E792E0215080409040E1F700C0000015
S1130570089560E084E00E943D018CE191E00E94D6
S11305804C012FEF80E792E0215080409040E1F74A
S113059000C00000AF9A089560E084E00E943D012D
S11305A08AE291E00E944C012FEF83EC99E0215004
S11305B080409040E1F700C00000089560E085E0CD
S11305C00E943D0185E391E00E944C01AF9A2FEF18
S11305D083EC99E0215080409040E1F700C0000096
S11305E008950F931F93CF93DF9360ED80E00E94F3
S11305F0B3002FEF82E597E0215080409040E1F76F
S113060000C000000E94A30081ED0E94AC000E9483
S1130610C40090E090930802809307020E94C400F3
S113062090E090930602809305020E94C40090E03B
S113063090930402809303020E94C40090E090937C
S11306400202809301020E94C40090E09093000291
S11306508093FF010E94C40090E09093FE01809378
S1130660FD010E94C40090E09093FC018093FB0183
S11306700E94A900809107020E94C80690E090930E
S1130680080280930702809105020E94C80690E048
S11306909093060280930502809103020E94C8068B
S11306A090E0909304028093030201E012E0F801C9
S11306B080810E94C80690E0909302028093010218
S11306C08091FF010E94C80690E0909300028093FD
S11306D0FF018091FD010E94C80690E09093FE0105
S11306E08093FD018091FB010E94C80690E09093E5
S11306F0FC018093FB018DE00E94F3068AE00E94D6
S1130700F3068091FF0190910002CAE0D0E0BE019F
S11307100E94130780E3860F0E94F3068091FF0175
S113072090910002BE010E941307805D0E94F306AF
S11307308EE20E94F3068091FD019091FE01BE01BC
S11307400E94130780E3860F0E94F3068091FD0147
S11307509091FE01BE010E941307805D0E94F30682
S11307608EE20E94F3068091FB019091FC01BE0190
S11307700E94130780E3860F0E94F3068091FB0119
S11307809091FC01BE010E941307805D0E94F30654
S11307908EE20E94F3068EE20E94F3068EE20E942D
S11307A0F3068EE20E94F3068EE20E94F306F8013D
S11307B08081805D0E94F3068EE20E94F3068EE241
S11307C00E94F3068EE20E94F30680910302909148
S11307D00402BE010E94130780E3860F0E94F30601
S11307E08091030290910402BE010E941307805D70
S11307F00E94F3068AE30E94F30680910502909119
S11308000602BE010E94130780E3860F0E94F306CE
S11308108091050290910602BE010E941307805D3B
S11308200E94F3068AE30E94F306809107029091E6
S11308300802BE010E94130780E3860F0E94F3069C
S11308408091070290910802BE010E941307805D07
S11308500E94F3068DE00E94F3068AE00E94F306EC
S1130860DF91CF911F910F91089590E0FC01E15425
S1130870F109E733F10508F07AC0E65DFF4F0C9407
S1130880490763E085E00E943D0180E491E00E9415
S11308904C01929AAE9A089563E085E00E943D016E
S11308A08AE491E00E944C019298AE98089563E026
S11308B085E00E943D0185E591E00E944C01939AF8
S11308C0AD9A089563E085E00E943D018FE591E0D3
S11308D00E944C019398AD98089563E085E00E94CE
S11308E03D018AE691E00E944C01949AAC9A0895E5
S11308F063E085E00E943D0184E791E00E944C01A1
S11309009498AC98089563E085E00E943D018FE7D8
S113091091E00E944C01959AAB9A089563E085E0BA
S11309200E943D0189E891E00E944C019598AB98A2
S1130930089563E085E00E943D0184E991E00E940E
S11309404C0182B38C6382BB85B3886785BB0895F1
S113095063E085E00E943D0180EA91E00E944C0141
S113096082B3837C82BB85B3877885BB089563E0BB
S113097085E00E943D018DEA91E00E944C010895BA
S11309800E94C30180E895E20E94D3060E945B01A5
S11309908AEB91E00E9404078DE00E94F3068AE04E
S11309A00E94F30678940E94A0000E94F102AF9A7C
S11309B0D1E06894FF24F2F813E0CD2F62E088E0E0
S11309C00E943D0180910302909104020E949701CC
S11309D08AE30E942A0180910502909106020E94F6
S11309E097018AE30E942A018091070290910802EC
S11309F00E949701B49926C02FEF81EE94E0215014
S1130A0080409040E1F700C000001092F90110927C
S1130A10F8011092F7011092F6011092F50110926C
S1130A20F4011092F3011092F20192989398949821
S1130A309598AE98AD98AC98AB988091FA018F5F79
S1130A408093FA018091FA010E9487022FEF82E5D8
S1130A5097E0215080409040E1F700C000000E94E0
S1130A6093018091FA01813009F08DC062E088E041
S1130A700E943D0180910302909104020E9497011B
S1130A808AE30E942A0180910502909106020E9445
S1130A9097018AE30E942A0180910702909108023B
S1130AA00E9497011092F101B09915C02FEF81EEC9
S1130AB094E0215080409040E1F700C00000C093D2
S1130AC0F5018091F9018F5F833018F48093F90167
S1130AD002C01092F901B19916C02FEF81EE94E093
S1130AE0215080409040E1F700C0000082E08093F4
S1130AF0F4018091F8018F5F833018F48093F8013A
S1130B0002C01092F801B29915C02FEF81EE94E063
S1130B10215080409040E1F700C000001093F301A1
S1130B208091F7018F5F833018F48093F70102C03E
S1130B301092F701B39915C02FEF81EE94E0215084
S1130B4080409040E1F700C00000F092F2018091F3
S1130B50F6018F5F833018F48093F60102C010927F
S1130B60F601A090F601C090F701E090F801009121
S1130B70F9012091F2014091F3016091F401809117
S1130B80F5010E94F3018091FA01823009F092C0CC
S1130B9062E088E00E943D0180910302909104028A
S1130BA00E9497018AE30E942A0180910502909194
S1130BB006020E9497018AE30E942A01809107029B
S1130BC0909108020E949701B19916C02FEF81EE0F
S1130BD094E0215080409040E1F700C0000082E0A2
S1130BE08093F4018091F8018F5F833018F480932F
S1130BF0F80102C01092F801B29915C02FEF81EEEE
S1130C0094E0215080409040E1F700C00000109330
S1130C10F3018091F7018F5F833018F48093F7011B
S1130C2002C01092F701B39915C02FEF81EE94E042
S1130C30215080409040E1F700C00000F092F201A2
S1130C408091F6018F5F833018F48093F60102C01F
S1130C501092F601A090F601C090F701E090F8011F
S1130C600091F9012091F2014091F3016091F401A6
S1130C708091F5010E94F301C8990FC0C093F1015E
S1130C806C2F80E00E943D018EEC91E00E944C01AB
S1130C908091F1010E94E2010DC06C2F80E00E945E
S1130CA03D018BEC91E00E944C011092F10180E037
S1130CB00E94E2018091FA01833031F562E088E01C
S1130CC00E943D0180910302909104020E949701C9
S1130CD08AE30E942A0180910502909106020E94F3
S1130CE097018AE30E942A018091070290910802E9
S1130CF00E949701A12CC12CE12C00E020E040E0EF
S1130D0060E080E00E94F3018091FA01843091F464
S1130D106C2F85E00E943D0187ED91E00E944C011B
S1130D20A12CC12CE12C00E020E040E060E080E058
S1130D300E94F3018091FA01853009F03FCE62E010
S1130D4088E00E943D0180910302909104020E9478
S1130D5097018AE30E942A0180910502909106027C
S1130D600E9497018AE30E942A01809107029091D0
S1130D7008020E9497016D2F85E00E943D0182EEDA
S1130D8091E00E944C018091F0010E94350416CE3E
S1130D90982F92959F70990F292F220F220F920F4F
S1130DA08F70890F0895A0E0B0E0880F991FAA1FE3
S1130DB0BB1F880F991FAA1FBB1F9C01AD01220FE7
S1130DC0331F441F551F220F331F441F551F60E05C
S1130DD072E18AE790E00E942707215029B988E14F
S1130DE08AB9579A08955D9BFECF8CB9883031F04B
S1130DF0809109028F5F809309020895809109020E
S1130E008150809309020895CF93DF93EC01888188
S1130E10882331F021960E94F30689918111FBCF3A
S1130E20DF91CF91089597FB072E16F4009407D015
S1130E3077FD09D00E944F0707FC05D03EF490953A
S1130E4081959F4F0895709561957F4F0895A1E214
S1130E501A2EAA1BBB1BFD010DC0AA1FBB1FEE1F30
S1130E60FF1FA217B307E407F50720F0A21BB30B7B
S1130E70E40BF50B661F771F881F991F1A9469F7F7
S1130E8060957095809590959B01AC01BD01CF0153
S1130E900895EE0FFF1F0590F491E02D0994AA1B0D
S1130EA0BB1B51E107C0AA1FBB1FA617B70710F051
S1130EB0A61BB70B881F991F5A95A9F78095909583
S1130EC0BC01CD010895BB274A3031F4992322F4A3
S1130ED0BDE2909581959F4F0C946F07BB27FB0152
S1130EE05527AA27880F991FAA1FA41710F0A41B1F
S1130EF083955051B9F7A05DAA3308F0A95DA19379
S1130F00009779F7B111B1931192CB010C94880732
S1130F10DC01FC01672F71917723E1F7329704C05C
S1130F207C916D9370836291AE17BF07C8F30895E7
S1070F30F894FFCF5F
S1130F34574F726B204E616772757A6B61204F4E06
S1130F442D3100574F726B204E616772757A6B6155
S1130F54204F46462D3100574F726B204E61677205
S1130F64757A6B61204F4E2D3200574F726B204EB1
S1130F74616772757A6B61204F46462D3200574F74
S1130F84726B204E616772757A6B61204F4E2D33FC
S1130F9400574F726B204E616772757A6B61204FF4
S1130FA446462D3300574F726B204E616772757A33
S1130FB46B61204F4E2D3400574F726B204E616786
S1130FC472757A6B61204F46462D340041646A750C
S1130FD473742053657474696E6773004175746F18
S1130FE42D5049522053656E736F7200536C6565BE
S1130FF470204D6F6465212121004F4646205379AA
S11310047374656D00436F6E74726F6C205043008B
S11310144F6E2D31206C6F6164004F46462D312094
S11310246C6F6164004F6E2D32206C6F6164004FED
S113103446462D32206C6F6164004F6E2D33206C54
S11310446F6164004F46462D33206C6F6164004F1A
S11310546E2D34206C6F6164004F46462D34206C31
S11310646F6164004F6E2D414C4C206C6F616400C1
S11310744F46462D414C4C206C6F616400576169A6
S11310847420494E505554212100576F726B2042ED
S11310946175643D393630302121004E6F204D6F27
S11310A474696F6E212100506F776572204F6E2131
S11310B421005553415254204D6F64652121000091
S9030000FC
