:100000000C942A000C9447000C9447000C94470071
:100010000C9447000C9447000C9447000C94470044
:100020000C9447000C9447000C9447000C94470034
:100030000C9447000C9447000C9447000C94470024
:100040000C9447000C9447000C9447000C94470014
:100050000C94470011241FBECFE5D4E0DEBFCDBF16
:1000600010E0A0E6B0E0E6E8FAE002C005900D92EC
:10007000AC3EB107D9F721E0ACEEB0E001C01D9273
:10008000A430B207E1F70E94A3020C9441050C943E
:100090000000BB9AC39881B3806B81BB82B38F741D
:1000A00082BB87B38C7F87BB88B3836088BBA79AEA
:1000B000A49AA39AA29AAF98AC98AB98AA980895DC
:1000C000CF93DF93C82F8130D9F486E690E00E9469
:1000D00038048DE00E941F048AE00E941F048EEF06
:1000E0008CBF81E090E09BBD8ABD83BD2FE78AE194
:1000F00096E0215080409040E1F700C000003BC0F6
:100100008230E1F480E790E00E9438048DE00E94A4
:100110001F048AE00E941F048AEF8CBF86E390E0F0
:100120009BBD8ABD81E083BD2FE78AE196E0215027
:1001300080409040E1F700C000003BC08330D9F41C
:100140008DE790E00E9438048DE00E941F048AE051
:100150000E941F048AE08CBF21ED30E03BBD2ABD28
:1001600083BD2FE78AE196E0215080409040E1F77F
:1001700000C000003CC0C430E1F489E890E00E9477
:1001800038048DE00E941F048AE00E941F0488E06A
:100190008CBF8DE090E09BBD8ABD8CED83BD2FE7C9
:1001A0008AE196E0215080409040E1F700C00000D5
:1001B0003CC0C530E1F484E990E00E9438048DE051
:1001C0000E941F048AE00E941F0486E98CBF8BE313
:1001D00090E09BBD8ABD88EA83BD2FE78AE196E067
:1001E000215080409040E1F700C000004CC0C63074
:1001F000E1F481EA90E00E9438048DE00E941F043F
:100200008AE00E941F048FEF8CBF8AEE90E09BBDB6
:100210008ABD85E083BD2FE78AE196E021508040CA
:100220009040E1F700C000002EC0C73060F10E948E
:10023000F004CFEFD0E0BE010E945A048E5F8CBF65
:100240000E94F0046AEF70E00E945A0402969BBD7F
:100250008ABD0E94F004BE010E945A048E5F83BDD5
:1002600089EA90E00E9438048DE00E941F048AE031
:100270000E941F042FE78AE196E0215080409040C1
:10028000E1F700C00000DF91CF91089583B7886443
:1002900083BF83B7806283BF83B7826083BF8FB51C
:1002A000816A8FBD8EB58A608EBD85B5886485BD37
:1002B00085B5806285BD85B5826085BD08950F9343
:1002C0001F93CF93DF9360ED80E00E94E1032FEF57
:1002D00082E597E0215080409040E1F700C00000A7
:1002E0000E94D10381ED0E94DA030E94F20390E0A4
:1002F0009093FF008093FE000E94F20390E09093A1
:10030000FD008093FC000E94F20390E09093FB00BC
:100310008093FA000E94F20390E09093F90080939A
:10032000F8000E94F20390E09093F7008093F600AB
:100330000E94F20390E09093F5008093F4000E94F5
:10034000F90390E09093F3008093F2000E94D703AA
:100350008091FE000E94C60390E09093FF0080937E
:10036000FE008091FC000E94C60390E09093FD0087
:100370008093FC008091FA000E94C60390E0909365
:10038000FB008093FA0008EF10E0F80180810E94E2
:10039000C60390E09093F9008093F8008091F600F6
:1003A0000E94C60390E09093F7008093F60080913E
:1003B000F4000E94C60390E09093F5008093F4004F
:1003C0008091F2000E94C60390E09093F300809326
:1003D000F2008DE00E941F048AE00E941F048091B9
:1003E000F6009091F700CAE0D0E0BE010E945A04E6
:1003F00080E3860F0E941F048091F6009091F70021
:10040000BE010E945A04805D0E941F048EE20E9479
:100410001F048091F4009091F500BE010E945A04DF
:1004200080E3860F0E941F048091F4009091F500F4
:10043000BE010E945A04805D0E941F048EE20E9449
:100440001F048091F2009091F300BE010E945A04B3
:1004500080E3860F0E941F048091F2009091F300C8
:10046000BE010E945A04805D0E941F048EE20E9419
:100470001F048EE20E941F048EE20E941F048EE27F
:100480000E941F048EE20E941F04F8018081805D9B
:100490000E941F048EE20E941F048EE20E941F042D
:1004A0008EE20E941F048091FA009091FB00BE0131
:1004B0000E945A0480E3860F0E941F048091FA0074
:1004C0009091FB00BE010E945A04805D0E941F04AF
:1004D0008AE30E941F048091FC009091FD00BE0100
:1004E0000E945A0480E3860F0E941F048091FC0042
:1004F0009091FD00BE010E945A04805D0E941F047D
:100500008AE30E941F048091FE009091FF00BE01CB
:100510000E945A0480E3860F0E941F048091FE000F
:100520009091FF00BE010E945A04805D0E941F044A
:100530008DE00E941F048AE00E941F04DF91CF918A
:100540001F910F9108950E9449000E9446017894DE
:1005500080E895E20E94000481EB90E00E9438045C
:100560008DE00E941F048AE00E941F0485E08CBF7A
:1005700025E030E03BBD2ABD83BDAF9AAA98662432
:100580006A94712C0F2EFAEF8F2E912CF02D0F2ED6
:10059000FEEECF2EF0E0DF2EF02D0F2EF4E65F2ED4
:1005A000F02D0F2EF8ECEF2EF12CF02D0F2EFAE09F
:1005B000AF2EB12CF02DC4E6D0E00EEF1BE9B099C0
:1005C0001DC02FEF80E792E0215080409040E1F77E
:1005D00000C00000809100019091010101968530DA
:1005E000910528F4909301018093000107C01092B7
:1005F000010110920001B199B0C002C0B19912C0BE
:10060000EFEFF0E722E0E150F0402040E1F700C0DA
:1006100000008091640090916500019690936500C0
:10062000809364008091000190910101019731F461
:10063000AA9AAB98AC9888810E94600080910001D2
:1006400090910101029709F088C0AA98AB9A0E9484
:100650005F0187EB90E00E9438048DE00E941F0448
:100660008AE00E941F048FE79AE1E6E08150904003
:10067000E040E1F700C000008091FA009091FB009B
:100680000797B9F413BD5CBEBBBCAABC83EC90E079
:100690000E9438048DE00E941F048AE00E941F041B
:1006A000FFE72AE186E0F15020408040E1F700C0FA
:1006B00000008091FA009091FB0040970497C0F4ED
:1006C00053BC0CBFFBBCEABC8DEC90E00E9438042C
:1006D0008DE00E941F048AE00E941F049FE7EAE168
:1006E000F6E09150E040F040E1F700C0000035C076
:1006F0000E94F004B3010E945A0402969093F10004
:100700008093F0000E94F004B4010E945A04029603
:100710009093EF008093EE000E94F004B3010E94DA
:100720005A0402969093ED008093EC0083BDF6018D
:1007300080818CBF8091F0009091F1009BBD8ABDBB
:1007400089ED90E00E943804FFE729EA83E0F15048
:1007500020408040E1F700C00000809100019091AE
:100760000101039709F02BCFAA98AB98AC9A1CBE55
:100770001BBC1ABC13BC84EE90E00E9438048DE0D0
:100780000E941F048AE00E941F0417CF982F9295A1
:100790009F70990F292F220F220F920F8F70890FB0
:1007A000089584EA86BF06B607FEFDCF089584E962
:1007B00086BF089583B984E886BF06B607FEFDCFDD
:1007C0000895CF93DF93C82FD62F0E94D1038D2F8A
:1007D0000E94DA038C2F0E94DA0384E986BFDF913E
:1007E000CF91089584EC86BF06B607FEFDCF83B196
:1007F000089584E886BF06B607FEFDCF83B108954D
:10080000A0E0B0E0880F991FAA1FBB1F880F991F97
:10081000AA1FBB1F9C01AD01220F331F441F551F90
:10082000220F331F441F551F60E072E18AE790E0FA
:100830000E946E04215029B988E18AB908955D9B10
:10084000FECF8CB9883051F0809102019091030164
:100850000196909303018093020108958091020113
:1008600090910301019790930301809302010895F1
:10087000FC0190819923E9F031965D9BFECF9CB9F4
:10088000983059F020910201309103012F5F3F4FC2
:10089000309303012093020109C0809102019091DD
:1008A00003010197909303018093020191919111AB
:1008B000E4CF089597FB072E16F4009407D077FD38
:1008C00009D00E94900407FC05D03EF490958195D4
:1008D0009F4F0895709561957F4F0895A1E21A2E5C
:1008E000AA1BBB1BFD010DC0AA1FBB1FEE1FFF1FD4
:1008F000A217B307E407F50720F0A21BB30BE40B24
:10090000F50B661F771F881F991F1A9469F760956A
:100910007095809590959B01AC01BD01CF01089524
:10092000AA1BBB1B51E107C0AA1FBB1FA617B70715
:1009300010F0A61BB70B881F991F5A95A9F7809531
:100940009095BC01CD0108958F929F92AF92BF9276
:10095000CF92DF92EF92FF92CF93DF93EC01688109
:1009600079818A819B81611571058105910521F449
:1009700064E279ED8BE597E02DE133EF41E050E063
:100980000E94000549015A019B01AC01A7EAB1E4AC
:100990000E941F056B017C01ACEEB4EFA501940130
:1009A0000E942D05DC01CB018C0D9D1DAE1DBF1DD0
:1009B000B7FF03C00197A109B04888839983AA8330
:1009C000BB839F77DF91CF91FF90EF90DF90CF9027
:1009D000BF90AF909F908F9008950E94A4040895B7
:1009E00080E690E00E94A4040895A0E0B0E0809327
:1009F000600090936100A0936200B093630008953B
:100A0000052E97FB1EF400940E94170557FD07D092
:100A10000E946E0407FC03D04EF40C941705509509
:100A20004095309521953F4F4F4F5F4F08959095DA
:100A30008095709561957F4F8F4F9F4F08950E94CD
:100A40003205A59F900DB49F900DA49F800D911D20
:100A500011240895B7FF0C941F050E941F05821BE7
:100A6000930B0895A29FB001B39FC001A39F700D87
:100A7000811D1124911DB29F700D811D1124911DA6
:060A80000895F894FFCF79
:100A8600010000000100636F6C6F722072656400E4
:100A9600636F6C6F72206F72616E676500636F6C57
:100AA6006F7220677265656E00636F6C6F7220628D
:100AB6006C756500636F6C6F72206669616C6F742C
:100AC60000636F6C6F7220360052414E444F4D21C9
:100AD6000068656C6C6F0020636C6F636B2D306E05
:100AE600212100636C6F636B20372D3800636C6FB8
:100AF600636B2031372D323000656E64206272657B
:0C0B06006E746800776F726B2033000083
:00000001FF
